{"contracts/AuthorityScore.sol":{"AuthorityScore":{"abi":[{"inputs":[{"internalType":"address","name":"initialOwner","type":"address"}],"stateMutability":"nonpayable","type":"constructor"},{"inputs":[{"internalType":"address","name":"owner","type":"address"}],"name":"OwnableInvalidOwner","type":"error"},{"inputs":[{"internalType":"address","name":"account","type":"address"}],"name":"OwnableUnauthorizedAccount","type":"error"},{"anonymous":false,"inputs":[{"indexed":true,"internalType":"address","name":"newCoreAddress","type":"address"}],"name":"CommonsCoreUpdated","type":"event"},{"anonymous":false,"inputs":[{"indexed":true,"internalType":"address","name":"previousOwner","type":"address"},{"indexed":true,"internalType":"address","name":"newOwner","type":"address"}],"name":"OwnershipTransferred","type":"event"},{"anonymous":false,"inputs":[{"indexed":true,"internalType":"address","name":"curator","type":"address"},{"indexed":false,"internalType":"uint256","name":"newScore","type":"uint256"},{"indexed":false,"internalType":"string","name":"activityType","type":"string"}],"name":"ScoreUpdated","type":"event"},{"inputs":[],"name":"commonsCore","outputs":[{"internalType":"address","name":"","type":"address"}],"stateMutability":"view","type":"function"},{"inputs":[{"internalType":"address","name":"","type":"address"}],"name":"curatorStats","outputs":[{"internalType":"uint256","name":"authorityScore","type":"uint256"},{"internalType":"uint256","name":"totalPredictions","type":"uint256"},{"internalType":"uint256","name":"correctPredictions","type":"uint256"},{"internalType":"uint256","name":"totalBounties","type":"uint256"},{"internalType":"uint256","name":"successfulBounties","type":"uint256"},{"internalType":"string","name":"primaryDomain","type":"string"},{"internalType":"uint256","name":"lastActivityTimestamp","type":"uint256"}],"stateMutability":"view","type":"function"},{"inputs":[{"internalType":"address","name":"curator","type":"address"}],"name":"getCuratorStats","outputs":[{"components":[{"internalType":"uint256","name":"authorityScore","type":"uint256"},{"internalType":"uint256","name":"totalPredictions","type":"uint256"},{"internalType":"uint256","name":"correctPredictions","type":"uint256"},{"internalType":"uint256","name":"totalBounties","type":"uint256"},{"internalType":"uint256","name":"successfulBounties","type":"uint256"},{"internalType":"string","name":"primaryDomain","type":"string"},{"internalType":"uint256","name":"lastActivityTimestamp","type":"uint256"}],"internalType":"struct AuthorityScore.CuratorStats","name":"","type":"tuple"}],"stateMutability":"view","type":"function"},{"inputs":[{"internalType":"address","name":"curator","type":"address"}],"name":"getScore","outputs":[{"internalType":"uint256","name":"","type":"uint256"}],"stateMutability":"view","type":"function"},{"inputs":[],"name":"owner","outputs":[{"internalType":"address","name":"","type":"address"}],"stateMutability":"view","type":"function"},{"inputs":[],"name":"renounceOwnership","outputs":[],"stateMutability":"nonpayable","type":"function"},{"inputs":[{"internalType":"address","name":"_commonsCore","type":"address"}],"name":"setCommonsCore","outputs":[],"stateMutability":"nonpayable","type":"function"},{"inputs":[{"internalType":"address","name":"newOwner","type":"address"}],"name":"transferOwnership","outputs":[],"stateMutability":"nonpayable","type":"function"},{"inputs":[{"internalType":"address","name":"curator","type":"address"},{"internalType":"bool","name":"correct","type":"bool"},{"internalType":"bool","name":"early","type":"bool"},{"internalType":"uint8","name":"deviation","type":"uint8"},{"internalType":"string","name":"","type":"string"},{"internalType":"bool","name":"isBounty","type":"bool"}],"name":"updateScore","outputs":[],"stateMutability":"nonpayable","type":"function"}],"evm":{"bytecode":{"linkReferences":{},"object":"608060405234801561001057600080fd5b50604051610c99380380610c9983398101604081905261002f916100be565b806001600160a01b03811661005e57604051631e4fbdf760e01b81526000600482015260240160405180910390fd5b6100678161006e565b50506100ee565b600080546001600160a01b038381166001600160a01b0319831681178455604051919092169283917f8be0079c531659141344cd1fd0a4f28419497f9722a3daafe3b4186f6b6457e09190a35050565b6000602082840312156100d057600080fd5b81516001600160a01b03811681146100e757600080fd5b9392505050565b610b9c806100fd6000396000f3fe608060405234801561001057600080fd5b50600436106100935760003560e01c80638da5cb5b116100665780638da5cb5b146101095780639da5aea01461011a578063d47875d01461012d578063dc78417014610164578063f2fde38b1461018a57600080fd5b8063144c29ab1461009857806340202015146100c15780635b4a0323146100ec578063715018a614610101575b600080fd5b6100ab6100a63660046107ef565b61019d565b6040516100b89190610857565b60405180910390f35b6002546100d4906001600160a01b031681565b6040516001600160a01b0390911681526020016100b8565b6100ff6100fa3660046107ef565b6102e2565b005b6100ff610381565b6000546001600160a01b03166100d4565b6100ff6101283660046108e2565b610395565b61015661013b3660046107ef565b6001600160a01b031660009081526001602052604090205490565b6040519081526020016100b8565b6101776101723660046107ef565b61064e565b6040516100b897969594939291906109ed565b6100ff6101983660046107ef565b610718565b6101dd6040518060e00160405280600081526020016000815260200160008152602001600081526020016000815260200160608152602001600081525090565b60016000836001600160a01b03166001600160a01b031681526020019081526020016000206040518060e0016040529081600082015481526020016001820154815260200160028201548152602001600382015481526020016004820154815260200160058201805461024f90610a32565b80601f016020809104026020016040519081016040528092919081815260200182805461027b90610a32565b80156102c85780601f1061029d576101008083540402835291602001916102c8565b820191906000526020600020905b8154815290600101906020018083116102ab57829003601f168201915b505050505081526020016006820154815250509050919050565b6102ea610756565b6001600160a01b0381166103375760405162461bcd60e51b815260206004820152600f60248201526e496e76616c6964206164647265737360881b60448201526064015b60405180910390fd5b600280546001600160a01b0319166001600160a01b0383169081179091556040517ff236eb4ca5dee573d4d5f18efc84bd4b4f01e20c8f723706a97f4b2f687bb6de90600090a250565b610389610756565b6103936000610783565b565b6002546001600160a01b031633146104015760405162461bcd60e51b815260206004820152602960248201527f417574686f7269747953636f72653a2063616c6c6572206973206e6f7420436f6044820152686d6d6f6e73436f726560b81b606482015260840161032e565b6001600160a01b038616600090815260016020526040812090821561044b578661042d57603119610430565b60645b9050851561044657610443603282610a82565b90505b610471565b86156104595750600a610471565b8460ff1660010361046c57506005610471565b506004195b85801561047e5750600081135b156104915761048e600282610aaa565b90505b6000826006015442116104a55760006104b4565b60068301546104b49042610ae0565b905060006104c562278d0083610af3565b845490915081156105105760006104dd836005610b15565b905060648111156104ec575060645b60646104f88282610ae0565b6105029084610b15565b61050c9190610af3565b9150505b600061051c8583610a82565b905060008112156105305760008655610534565b8086555b426006870155861561057a5760038601805490600061055283610b2c565b91905055508a156105755760048601805490600061056f83610b2c565b91905055505b6105af565b60018601805490600061058c83610b2c565b91905055508a156105af576002860180549060006105a983610b2c565b91905055505b8b6001600160a01b03167f2b535fbf4d2281f734a35408583a14d4e2b28653b00d761613e8758399dd6e6d87600001548961060a576040518060400160405280600881526020016721aaa920aa24a7a760c11b81525061062a565b60405180604001604052806006815260200165424f554e545960d01b8152505b604051610638929190610b45565b60405180910390a2505050505050505050505050565b600160205280600052604060002060009150905080600001549080600101549080600201549080600301549080600401549080600501805461068f90610a32565b80601f01602080910402602001604051908101604052809291908181526020018280546106bb90610a32565b80156107085780601f106106dd57610100808354040283529160200191610708565b820191906000526020600020905b8154815290600101906020018083116106eb57829003601f168201915b5050505050908060060154905087565b610720610756565b6001600160a01b03811661074a57604051631e4fbdf760e01b81526000600482015260240161032e565b61075381610783565b50565b6000546001600160a01b031633146103935760405163118cdaa760e01b815233600482015260240161032e565b600080546001600160a01b038381166001600160a01b0319831681178455604051919092169283917f8be0079c531659141344cd1fd0a4f28419497f9722a3daafe3b4186f6b6457e09190a35050565b80356001600160a01b03811681146107ea57600080fd5b919050565b60006020828403121561080157600080fd5b61080a826107d3565b9392505050565b6000815180845260005b818110156108375760208185018101518683018201520161081b565b506000602082860101526020601f19601f83011685010191505092915050565b6020815281516020820152602082015160408201526040820151606082015260608201516080820152608082015160a0820152600060a083015160e060c08401526108a6610100840182610811565b905060c084015160e08401528091505092915050565b803580151581146107ea57600080fd5b634e487b7160e01b600052604160045260246000fd5b60008060008060008060c087890312156108fb57600080fd5b610904876107d3565b9550610912602088016108bc565b9450610920604088016108bc565b9350606087013560ff8116811461093657600080fd5b9250608087013567ffffffffffffffff8082111561095357600080fd5b818901915089601f83011261096757600080fd5b813581811115610979576109796108cc565b604051601f8201601f19908116603f011681019083821181831017156109a1576109a16108cc565b816040528281528c60208487010111156109ba57600080fd5b8260208601602083013760006020848301015280965050505050506109e160a088016108bc565b90509295509295509295565b87815286602082015285604082015284606082015283608082015260e060a08201526000610a1e60e0830185610811565b90508260c083015298975050505050505050565b600181811c90821680610a4657607f821691505b602082108103610a6657634e487b7160e01b600052602260045260246000fd5b50919050565b634e487b7160e01b600052601160045260246000fd5b8082018281126000831280158216821582161715610aa257610aa2610a6c565b505092915050565b80820260008212600160ff1b84141615610ac657610ac6610a6c565b8181058314821517610ada57610ada610a6c565b92915050565b81810381811115610ada57610ada610a6c565b600082610b1057634e487b7160e01b600052601260045260246000fd5b500490565b8082028115828204841417610ada57610ada610a6c565b600060018201610b3e57610b3e610a6c565b5060010190565b828152604060208201526000610b5e6040830184610811565b94935050505056fea264697066735822122040bbc23fe30df22b75ba478ee20fd6c14f26401749c0a9519377ed0f2e55d7ea64736f6c63430008140033","opcodes":"PUSH1 0x80 PUSH1 0x40 MSTORE CALLVALUE DUP1 ISZERO PUSH2 0x10 JUMPI PUSH1 0x0 DUP1 REVERT JUMPDEST POP PUSH1 0x40 MLOAD PUSH2 0xC99 CODESIZE SUB DUP1 PUSH2 0xC99 DUP4 CODECOPY DUP2 ADD PUSH1 0x40 DUP2 SWAP1 MSTORE PUSH2 0x2F SWAP2 PUSH2 0xBE JUMP JUMPDEST DUP1 PUSH1 0x1 PUSH1 0x1 PUSH1 0xA0 SHL SUB DUP2 AND PUSH2 0x5E JUMPI PUSH1 0x40 MLOAD PUSH4 0x1E4FBDF7 PUSH1 0xE0 SHL DUP2 MSTORE PUSH1 0x0 PUSH1 0x4 DUP3 ADD MSTORE PUSH1 0x24 ADD PUSH1 0x40 MLOAD DUP1 SWAP2 SUB SWAP1 REVERT JUMPDEST PUSH2 0x67 DUP2 PUSH2 0x6E JUMP JUMPDEST POP POP PUSH2 0xEE JUMP JUMPDEST PUSH1 0x0 DUP1 SLOAD PUSH1 0x1 PUSH1 0x1 PUSH1 0xA0 SHL SUB DUP4 DUP2 AND PUSH1 0x1 PUSH1 0x1 PUSH1 0xA0 SHL SUB NOT DUP4 AND DUP2 OR DUP5 SSTORE PUSH1 0x40 MLOAD SWAP2 SWAP1 SWAP3 AND SWAP3 DUP4 SWAP2 PUSH32 0x8BE0079C531659141344CD1FD0A4F28419497F9722A3DAAFE3B4186F6B6457E0 SWAP2 SWAP1 LOG3 POP POP JUMP JUMPDEST PUSH1 0x0 PUSH1 0x20 DUP3 DUP5 SUB SLT ISZERO PUSH2 0xD0 JUMPI PUSH1 0x0 DUP1 REVERT JUMPDEST DUP2 MLOAD PUSH1 0x1 PUSH1 0x1 PUSH1 0xA0 SHL SUB DUP2 AND DUP2 EQ PUSH2 0xE7 JUMPI PUSH1 0x0 DUP1 REVERT JUMPDEST SWAP4 SWAP3 POP POP POP JUMP JUMPDEST PUSH2 0xB9C DUP1 PUSH2 0xFD PUSH1 0x0 CODECOPY PUSH1 0x0 RETURN INVALID PUSH1 0x80 PUSH1 0x40 MSTORE CALLVALUE DUP1 ISZERO PUSH2 0x10 JUMPI PUSH1 0x0 DUP1 REVERT JUMPDEST POP PUSH1 0x4 CALLDATASIZE LT PUSH2 0x93 JUMPI PUSH1 0x0 CALLDATALOAD PUSH1 0xE0 SHR DUP1 PUSH4 0x8DA5CB5B GT PUSH2 0x66 JUMPI DUP1 PUSH4 0x8DA5CB5B EQ PUSH2 0x109 JUMPI DUP1 PUSH4 0x9DA5AEA0 EQ PUSH2 0x11A JUMPI DUP1 PUSH4 0xD47875D0 EQ PUSH2 0x12D JUMPI DUP1 PUSH4 0xDC784170 EQ PUSH2 0x164 JUMPI DUP1 PUSH4 0xF2FDE38B EQ PUSH2 0x18A JUMPI PUSH1 0x0 DUP1 REVERT JUMPDEST DUP1 PUSH4 0x144C29AB EQ PUSH2 0x98 JUMPI DUP1 PUSH4 0x40202015 EQ PUSH2 0xC1 JUMPI DUP1 PUSH4 0x5B4A0323 EQ PUSH2 0xEC JUMPI DUP1 PUSH4 0x715018A6 EQ PUSH2 0x101 JUMPI JUMPDEST PUSH1 0x0 DUP1 REVERT JUMPDEST PUSH2 0xAB PUSH2 0xA6 CALLDATASIZE PUSH1 0x4 PUSH2 0x7EF JUMP JUMPDEST PUSH2 0x19D JUMP JUMPDEST PUSH1 0x40 MLOAD PUSH2 0xB8 SWAP2 SWAP1 PUSH2 0x857 JUMP JUMPDEST PUSH1 0x40 MLOAD DUP1 SWAP2 SUB SWAP1 RETURN JUMPDEST PUSH1 0x2 SLOAD PUSH2 0xD4 SWAP1 PUSH1 0x1 PUSH1 0x1 PUSH1 0xA0 SHL SUB AND DUP2 JUMP JUMPDEST PUSH1 0x40 MLOAD PUSH1 0x1 PUSH1 0x1 PUSH1 0xA0 SHL SUB SWAP1 SWAP2 AND DUP2 MSTORE PUSH1 0x20 ADD PUSH2 0xB8 JUMP JUMPDEST PUSH2 0xFF PUSH2 0xFA CALLDATASIZE PUSH1 0x4 PUSH2 0x7EF JUMP JUMPDEST PUSH2 0x2E2 JUMP JUMPDEST STOP JUMPDEST PUSH2 0xFF PUSH2 0x381 JUMP JUMPDEST PUSH1 0x0 SLOAD PUSH1 0x1 PUSH1 0x1 PUSH1 0xA0 SHL SUB AND PUSH2 0xD4 JUMP JUMPDEST PUSH2 0xFF PUSH2 0x128 CALLDATASIZE PUSH1 0x4 PUSH2 0x8E2 JUMP JUMPDEST PUSH2 0x395 JUMP JUMPDEST PUSH2 0x156 PUSH2 0x13B CALLDATASIZE PUSH1 0x4 PUSH2 0x7EF JUMP JUMPDEST PUSH1 0x1 PUSH1 0x1 PUSH1 0xA0 SHL SUB AND PUSH1 0x0 SWAP1 DUP2 MSTORE PUSH1 0x1 PUSH1 0x20 MSTORE PUSH1 0x40 SWAP1 KECCAK256 SLOAD SWAP1 JUMP JUMPDEST PUSH1 0x40 MLOAD SWAP1 DUP2 MSTORE PUSH1 0x20 ADD PUSH2 0xB8 JUMP JUMPDEST PUSH2 0x177 PUSH2 0x172 CALLDATASIZE PUSH1 0x4 PUSH2 0x7EF JUMP JUMPDEST PUSH2 0x64E JUMP JUMPDEST PUSH1 0x40 MLOAD PUSH2 0xB8 SWAP8 SWAP7 SWAP6 SWAP5 SWAP4 SWAP3 SWAP2 SWAP1 PUSH2 0x9ED JUMP JUMPDEST PUSH2 0xFF PUSH2 0x198 CALLDATASIZE PUSH1 0x4 PUSH2 0x7EF JUMP JUMPDEST PUSH2 0x718 JUMP JUMPDEST PUSH2 0x1DD PUSH1 0x40 MLOAD DUP1 PUSH1 0xE0 ADD PUSH1 0x40 MSTORE DUP1 PUSH1 0x0 DUP2 MSTORE PUSH1 0x20 ADD PUSH1 0x0 DUP2 MSTORE PUSH1 0x20 ADD PUSH1 0x0 DUP2 MSTORE PUSH1 0x20 ADD PUSH1 0x0 DUP2 MSTORE PUSH1 0x20 ADD PUSH1 0x0 DUP2 MSTORE PUSH1 0x20 ADD PUSH1 0x60 DUP2 MSTORE PUSH1 0x20 ADD PUSH1 0x0 DUP2 MSTORE POP SWAP1 JUMP JUMPDEST PUSH1 0x1 PUSH1 0x0 DUP4 PUSH1 0x1 PUSH1 0x1 PUSH1 0xA0 SHL SUB AND PUSH1 0x1 PUSH1 0x1 PUSH1 0xA0 SHL SUB AND DUP2 MSTORE PUSH1 0x20 ADD SWAP1 DUP2 MSTORE PUSH1 0x20 ADD PUSH1 0x0 KECCAK256 PUSH1 0x40 MLOAD DUP1 PUSH1 0xE0 ADD PUSH1 0x40 MSTORE SWAP1 DUP2 PUSH1 0x0 DUP3 ADD SLOAD DUP2 MSTORE PUSH1 0x20 ADD PUSH1 0x1 DUP3 ADD SLOAD DUP2 MSTORE PUSH1 0x20 ADD PUSH1 0x2 DUP3 ADD SLOAD DUP2 MSTORE PUSH1 0x20 ADD PUSH1 0x3 DUP3 ADD SLOAD DUP2 MSTORE PUSH1 0x20 ADD PUSH1 0x4 DUP3 ADD SLOAD DUP2 MSTORE PUSH1 0x20 ADD PUSH1 0x5 DUP3 ADD DUP1 SLOAD PUSH2 0x24F SWAP1 PUSH2 0xA32 JUMP JUMPDEST DUP1 PUSH1 0x1F ADD PUSH1 0x20 DUP1 SWAP2 DIV MUL PUSH1 0x20 ADD PUSH1 0x40 MLOAD SWAP1 DUP2 ADD PUSH1 0x40 MSTORE DUP1 SWAP3 SWAP2 SWAP1 DUP2 DUP2 MSTORE PUSH1 0x20 ADD DUP3 DUP1 SLOAD PUSH2 0x27B SWAP1 PUSH2 0xA32 JUMP JUMPDEST DUP1 ISZERO PUSH2 0x2C8 JUMPI DUP1 PUSH1 0x1F LT PUSH2 0x29D JUMPI PUSH2 0x100 DUP1 DUP4 SLOAD DIV MUL DUP4 MSTORE SWAP2 PUSH1 0x20 ADD SWAP2 PUSH2 0x2C8 JUMP JUMPDEST DUP3 ADD SWAP2 SWAP1 PUSH1 0x0 MSTORE PUSH1 0x20 PUSH1 0x0 KECCAK256 SWAP1 JUMPDEST DUP2 SLOAD DUP2 MSTORE SWAP1 PUSH1 0x1 ADD SWAP1 PUSH1 0x20 ADD DUP1 DUP4 GT PUSH2 0x2AB JUMPI DUP3 SWAP1 SUB PUSH1 0x1F AND DUP3 ADD SWAP2 JUMPDEST POP POP POP POP POP DUP2 MSTORE PUSH1 0x20 ADD PUSH1 0x6 DUP3 ADD SLOAD DUP2 MSTORE POP POP SWAP1 POP SWAP2 SWAP1 POP JUMP JUMPDEST PUSH2 0x2EA PUSH2 0x756 JUMP JUMPDEST PUSH1 0x1 PUSH1 0x1 PUSH1 0xA0 SHL SUB DUP2 AND PUSH2 0x337 JUMPI PUSH1 0x40 MLOAD PUSH3 0x461BCD PUSH1 0xE5 SHL DUP2 MSTORE PUSH1 0x20 PUSH1 0x4 DUP3 ADD MSTORE PUSH1 0xF PUSH1 0x24 DUP3 ADD MSTORE PUSH15 0x496E76616C69642061646472657373 PUSH1 0x88 SHL PUSH1 0x44 DUP3 ADD MSTORE PUSH1 0x64 ADD JUMPDEST PUSH1 0x40 MLOAD DUP1 SWAP2 SUB SWAP1 REVERT JUMPDEST PUSH1 0x2 DUP1 SLOAD PUSH1 0x1 PUSH1 0x1 PUSH1 0xA0 SHL SUB NOT AND PUSH1 0x1 PUSH1 0x1 PUSH1 0xA0 SHL SUB DUP4 AND SWAP1 DUP2 OR SWAP1 SWAP2 SSTORE PUSH1 0x40 MLOAD PUSH32 0xF236EB4CA5DEE573D4D5F18EFC84BD4B4F01E20C8F723706A97F4B2F687BB6DE SWAP1 PUSH1 0x0 SWAP1 LOG2 POP JUMP JUMPDEST PUSH2 0x389 PUSH2 0x756 JUMP JUMPDEST PUSH2 0x393 PUSH1 0x0 PUSH2 0x783 JUMP JUMPDEST JUMP JUMPDEST PUSH1 0x2 SLOAD PUSH1 0x1 PUSH1 0x1 PUSH1 0xA0 SHL SUB AND CALLER EQ PUSH2 0x401 JUMPI PUSH1 0x40 MLOAD PUSH3 0x461BCD PUSH1 0xE5 SHL DUP2 MSTORE PUSH1 0x20 PUSH1 0x4 DUP3 ADD MSTORE PUSH1 0x29 PUSH1 0x24 DUP3 ADD MSTORE PUSH32 0x417574686F7269747953636F72653A2063616C6C6572206973206E6F7420436F PUSH1 0x44 DUP3 ADD MSTORE PUSH9 0x6D6D6F6E73436F7265 PUSH1 0xB8 SHL PUSH1 0x64 DUP3 ADD MSTORE PUSH1 0x84 ADD PUSH2 0x32E JUMP JUMPDEST PUSH1 0x1 PUSH1 0x1 PUSH1 0xA0 SHL SUB DUP7 AND PUSH1 0x0 SWAP1 DUP2 MSTORE PUSH1 0x1 PUSH1 0x20 MSTORE PUSH1 0x40 DUP2 KECCAK256 SWAP1 DUP3 ISZERO PUSH2 0x44B JUMPI DUP7 PUSH2 0x42D JUMPI PUSH1 0x31 NOT PUSH2 0x430 JUMP JUMPDEST PUSH1 0x64 JUMPDEST SWAP1 POP DUP6 ISZERO PUSH2 0x446 JUMPI PUSH2 0x443 PUSH1 0x32 DUP3 PUSH2 0xA82 JUMP JUMPDEST SWAP1 POP JUMPDEST PUSH2 0x471 JUMP JUMPDEST DUP7 ISZERO PUSH2 0x459 JUMPI POP PUSH1 0xA PUSH2 0x471 JUMP JUMPDEST DUP5 PUSH1 0xFF AND PUSH1 0x1 SUB PUSH2 0x46C JUMPI POP PUSH1 0x5 PUSH2 0x471 JUMP JUMPDEST POP PUSH1 0x4 NOT JUMPDEST DUP6 DUP1 ISZERO PUSH2 0x47E JUMPI POP PUSH1 0x0 DUP2 SGT JUMPDEST ISZERO PUSH2 0x491 JUMPI PUSH2 0x48E PUSH1 0x2 DUP3 PUSH2 0xAAA JUMP JUMPDEST SWAP1 POP JUMPDEST PUSH1 0x0 DUP3 PUSH1 0x6 ADD SLOAD TIMESTAMP GT PUSH2 0x4A5 JUMPI PUSH1 0x0 PUSH2 0x4B4 JUMP JUMPDEST PUSH1 0x6 DUP4 ADD SLOAD PUSH2 0x4B4 SWAP1 TIMESTAMP PUSH2 0xAE0 JUMP JUMPDEST SWAP1 POP PUSH1 0x0 PUSH2 0x4C5 PUSH3 0x278D00 DUP4 PUSH2 0xAF3 JUMP JUMPDEST DUP5 SLOAD SWAP1 SWAP2 POP DUP2 ISZERO PUSH2 0x510 JUMPI PUSH1 0x0 PUSH2 0x4DD DUP4 PUSH1 0x5 PUSH2 0xB15 JUMP JUMPDEST SWAP1 POP PUSH1 0x64 DUP2 GT ISZERO PUSH2 0x4EC JUMPI POP PUSH1 0x64 JUMPDEST PUSH1 0x64 PUSH2 0x4F8 DUP3 DUP3 PUSH2 0xAE0 JUMP JUMPDEST PUSH2 0x502 SWAP1 DUP5 PUSH2 0xB15 JUMP JUMPDEST PUSH2 0x50C SWAP2 SWAP1 PUSH2 0xAF3 JUMP JUMPDEST SWAP2 POP POP JUMPDEST PUSH1 0x0 PUSH2 0x51C DUP6 DUP4 PUSH2 0xA82 JUMP JUMPDEST SWAP1 POP PUSH1 0x0 DUP2 SLT ISZERO PUSH2 0x530 JUMPI PUSH1 0x0 DUP7 SSTORE PUSH2 0x534 JUMP JUMPDEST DUP1 DUP7 SSTORE JUMPDEST TIMESTAMP PUSH1 0x6 DUP8 ADD SSTORE DUP7 ISZERO PUSH2 0x57A JUMPI PUSH1 0x3 DUP7 ADD DUP1 SLOAD SWAP1 PUSH1 0x0 PUSH2 0x552 DUP4 PUSH2 0xB2C JUMP JUMPDEST SWAP2 SWAP1 POP SSTORE POP DUP11 ISZERO PUSH2 0x575 JUMPI PUSH1 0x4 DUP7 ADD DUP1 SLOAD SWAP1 PUSH1 0x0 PUSH2 0x56F DUP4 PUSH2 0xB2C JUMP JUMPDEST SWAP2 SWAP1 POP SSTORE POP JUMPDEST PUSH2 0x5AF JUMP JUMPDEST PUSH1 0x1 DUP7 ADD DUP1 SLOAD SWAP1 PUSH1 0x0 PUSH2 0x58C DUP4 PUSH2 0xB2C JUMP JUMPDEST SWAP2 SWAP1 POP SSTORE POP DUP11 ISZERO PUSH2 0x5AF JUMPI PUSH1 0x2 DUP7 ADD DUP1 SLOAD SWAP1 PUSH1 0x0 PUSH2 0x5A9 DUP4 PUSH2 0xB2C JUMP JUMPDEST SWAP2 SWAP1 POP SSTORE POP JUMPDEST DUP12 PUSH1 0x1 PUSH1 0x1 PUSH1 0xA0 SHL SUB AND PUSH32 0x2B535FBF4D2281F734A35408583A14D4E2B28653B00D761613E8758399DD6E6D DUP8 PUSH1 0x0 ADD SLOAD DUP10 PUSH2 0x60A JUMPI PUSH1 0x40 MLOAD DUP1 PUSH1 0x40 ADD PUSH1 0x40 MSTORE DUP1 PUSH1 0x8 DUP2 MSTORE PUSH1 0x20 ADD PUSH8 0x21AAA920AA24A7A7 PUSH1 0xC1 SHL DUP2 MSTORE POP PUSH2 0x62A JUMP JUMPDEST PUSH1 0x40 MLOAD DUP1 PUSH1 0x40 ADD PUSH1 0x40 MSTORE DUP1 PUSH1 0x6 DUP2 MSTORE PUSH1 0x20 ADD PUSH6 0x424F554E5459 PUSH1 0xD0 SHL DUP2 MSTORE POP JUMPDEST PUSH1 0x40 MLOAD PUSH2 0x638 SWAP3 SWAP2 SWAP1 PUSH2 0xB45 JUMP JUMPDEST PUSH1 0x40 MLOAD DUP1 SWAP2 SUB SWAP1 LOG2 POP POP POP POP POP POP POP POP POP POP POP POP JUMP JUMPDEST PUSH1 0x1 PUSH1 0x20 MSTORE DUP1 PUSH1 0x0 MSTORE PUSH1 0x40 PUSH1 0x0 KECCAK256 PUSH1 0x0 SWAP2 POP SWAP1 POP DUP1 PUSH1 0x0 ADD SLOAD SWAP1 DUP1 PUSH1 0x1 ADD SLOAD SWAP1 DUP1 PUSH1 0x2 ADD SLOAD SWAP1 DUP1 PUSH1 0x3 ADD SLOAD SWAP1 DUP1 PUSH1 0x4 ADD SLOAD SWAP1 DUP1 PUSH1 0x5 ADD DUP1 SLOAD PUSH2 0x68F SWAP1 PUSH2 0xA32 JUMP JUMPDEST DUP1 PUSH1 0x1F ADD PUSH1 0x20 DUP1 SWAP2 DIV MUL PUSH1 0x20 ADD PUSH1 0x40 MLOAD SWAP1 DUP2 ADD PUSH1 0x40 MSTORE DUP1 SWAP3 SWAP2 SWAP1 DUP2 DUP2 MSTORE PUSH1 0x20 ADD DUP3 DUP1 SLOAD PUSH2 0x6BB SWAP1 PUSH2 0xA32 JUMP JUMPDEST DUP1 ISZERO PUSH2 0x708 JUMPI DUP1 PUSH1 0x1F LT PUSH2 0x6DD JUMPI PUSH2 0x100 DUP1 DUP4 SLOAD DIV MUL DUP4 MSTORE SWAP2 PUSH1 0x20 ADD SWAP2 PUSH2 0x708 JUMP JUMPDEST DUP3 ADD SWAP2 SWAP1 PUSH1 0x0 MSTORE PUSH1 0x20 PUSH1 0x0 KECCAK256 SWAP1 JUMPDEST DUP2 SLOAD DUP2 MSTORE SWAP1 PUSH1 0x1 ADD SWAP1 PUSH1 0x20 ADD DUP1 DUP4 GT PUSH2 0x6EB JUMPI DUP3 SWAP1 SUB PUSH1 0x1F AND DUP3 ADD SWAP2 JUMPDEST POP POP POP POP POP SWAP1 DUP1 PUSH1 0x6 ADD SLOAD SWAP1 POP DUP8 JUMP JUMPDEST PUSH2 0x720 PUSH2 0x756 JUMP JUMPDEST PUSH1 0x1 PUSH1 0x1 PUSH1 0xA0 SHL SUB DUP2 AND PUSH2 0x74A JUMPI PUSH1 0x40 MLOAD PUSH4 0x1E4FBDF7 PUSH1 0xE0 SHL DUP2 MSTORE PUSH1 0x0 PUSH1 0x4 DUP3 ADD MSTORE PUSH1 0x24 ADD PUSH2 0x32E JUMP JUMPDEST PUSH2 0x753 DUP2 PUSH2 0x783 JUMP JUMPDEST POP JUMP JUMPDEST PUSH1 0x0 SLOAD PUSH1 0x1 PUSH1 0x1 PUSH1 0xA0 SHL SUB AND CALLER EQ PUSH2 0x393 JUMPI PUSH1 0x40 MLOAD PUSH4 0x118CDAA7 PUSH1 0xE0 SHL DUP2 MSTORE CALLER PUSH1 0x4 DUP3 ADD MSTORE PUSH1 0x24 ADD PUSH2 0x32E JUMP JUMPDEST PUSH1 0x0 DUP1 SLOAD PUSH1 0x1 PUSH1 0x1 PUSH1 0xA0 SHL SUB DUP4 DUP2 AND PUSH1 0x1 PUSH1 0x1 PUSH1 0xA0 SHL SUB NOT DUP4 AND DUP2 OR DUP5 SSTORE PUSH1 0x40 MLOAD SWAP2 SWAP1 SWAP3 AND SWAP3 DUP4 SWAP2 PUSH32 0x8BE0079C531659141344CD1FD0A4F28419497F9722A3DAAFE3B4186F6B6457E0 SWAP2 SWAP1 LOG3 POP POP JUMP JUMPDEST DUP1 CALLDATALOAD PUSH1 0x1 PUSH1 0x1 PUSH1 0xA0 SHL SUB DUP2 AND DUP2 EQ PUSH2 0x7EA JUMPI PUSH1 0x0 DUP1 REVERT JUMPDEST SWAP2 SWAP1 POP JUMP JUMPDEST PUSH1 0x0 PUSH1 0x20 DUP3 DUP5 SUB SLT ISZERO PUSH2 0x801 JUMPI PUSH1 0x0 DUP1 REVERT JUMPDEST PUSH2 0x80A DUP3 PUSH2 0x7D3 JUMP JUMPDEST SWAP4 SWAP3 POP POP POP JUMP JUMPDEST PUSH1 0x0 DUP2 MLOAD DUP1 DUP5 MSTORE PUSH1 0x0 JUMPDEST DUP2 DUP2 LT ISZERO PUSH2 0x837 JUMPI PUSH1 0x20 DUP2 DUP6 ADD DUP2 ADD MLOAD DUP7 DUP4 ADD DUP3 ADD MSTORE ADD PUSH2 0x81B JUMP JUMPDEST POP PUSH1 0x0 PUSH1 0x20 DUP3 DUP7 ADD ADD MSTORE PUSH1 0x20 PUSH1 0x1F NOT PUSH1 0x1F DUP4 ADD AND DUP6 ADD ADD SWAP2 POP POP SWAP3 SWAP2 POP POP JUMP JUMPDEST PUSH1 0x20 DUP2 MSTORE DUP2 MLOAD PUSH1 0x20 DUP3 ADD MSTORE PUSH1 0x20 DUP3 ADD MLOAD PUSH1 0x40 DUP3 ADD MSTORE PUSH1 0x40 DUP3 ADD MLOAD PUSH1 0x60 DUP3 ADD MSTORE PUSH1 0x60 DUP3 ADD MLOAD PUSH1 0x80 DUP3 ADD MSTORE PUSH1 0x80 DUP3 ADD MLOAD PUSH1 0xA0 DUP3 ADD MSTORE PUSH1 0x0 PUSH1 0xA0 DUP4 ADD MLOAD PUSH1 0xE0 PUSH1 0xC0 DUP5 ADD MSTORE PUSH2 0x8A6 PUSH2 0x100 DUP5 ADD DUP3 PUSH2 0x811 JUMP JUMPDEST SWAP1 POP PUSH1 0xC0 DUP5 ADD MLOAD PUSH1 0xE0 DUP5 ADD MSTORE DUP1 SWAP2 POP POP SWAP3 SWAP2 POP POP JUMP JUMPDEST DUP1 CALLDATALOAD DUP1 ISZERO ISZERO DUP2 EQ PUSH2 0x7EA JUMPI PUSH1 0x0 DUP1 REVERT JUMPDEST PUSH4 0x4E487B71 PUSH1 0xE0 SHL PUSH1 0x0 MSTORE PUSH1 0x41 PUSH1 0x4 MSTORE PUSH1 0x24 PUSH1 0x0 REVERT JUMPDEST PUSH1 0x0 DUP1 PUSH1 0x0 DUP1 PUSH1 0x0 DUP1 PUSH1 0xC0 DUP8 DUP10 SUB SLT ISZERO PUSH2 0x8FB JUMPI PUSH1 0x0 DUP1 REVERT JUMPDEST PUSH2 0x904 DUP8 PUSH2 0x7D3 JUMP JUMPDEST SWAP6 POP PUSH2 0x912 PUSH1 0x20 DUP9 ADD PUSH2 0x8BC JUMP JUMPDEST SWAP5 POP PUSH2 0x920 PUSH1 0x40 DUP9 ADD PUSH2 0x8BC JUMP JUMPDEST SWAP4 POP PUSH1 0x60 DUP8 ADD CALLDATALOAD PUSH1 0xFF DUP2 AND DUP2 EQ PUSH2 0x936 JUMPI PUSH1 0x0 DUP1 REVERT JUMPDEST SWAP3 POP PUSH1 0x80 DUP8 ADD CALLDATALOAD PUSH8 0xFFFFFFFFFFFFFFFF DUP1 DUP3 GT ISZERO PUSH2 0x953 JUMPI PUSH1 0x0 DUP1 REVERT JUMPDEST DUP2 DUP10 ADD SWAP2 POP DUP10 PUSH1 0x1F DUP4 ADD SLT PUSH2 0x967 JUMPI PUSH1 0x0 DUP1 REVERT JUMPDEST DUP2 CALLDATALOAD DUP2 DUP2 GT ISZERO PUSH2 0x979 JUMPI PUSH2 0x979 PUSH2 0x8CC JUMP JUMPDEST PUSH1 0x40 MLOAD PUSH1 0x1F DUP3 ADD PUSH1 0x1F NOT SWAP1 DUP2 AND PUSH1 0x3F ADD AND DUP2 ADD SWAP1 DUP4 DUP3 GT DUP2 DUP4 LT OR ISZERO PUSH2 0x9A1 JUMPI PUSH2 0x9A1 PUSH2 0x8CC JUMP JUMPDEST DUP2 PUSH1 0x40 MSTORE DUP3 DUP2 MSTORE DUP13 PUSH1 0x20 DUP5 DUP8 ADD ADD GT ISZERO PUSH2 0x9BA JUMPI PUSH1 0x0 DUP1 REVERT JUMPDEST DUP3 PUSH1 0x20 DUP7 ADD PUSH1 0x20 DUP4 ADD CALLDATACOPY PUSH1 0x0 PUSH1 0x20 DUP5 DUP4 ADD ADD MSTORE DUP1 SWAP7 POP POP POP POP POP POP PUSH2 0x9E1 PUSH1 0xA0 DUP9 ADD PUSH2 0x8BC JUMP JUMPDEST SWAP1 POP SWAP3 SWAP6 POP SWAP3 SWAP6 POP SWAP3 SWAP6 JUMP JUMPDEST DUP8 DUP2 MSTORE DUP7 PUSH1 0x20 DUP3 ADD MSTORE DUP6 PUSH1 0x40 DUP3 ADD MSTORE DUP5 PUSH1 0x60 DUP3 ADD MSTORE DUP4 PUSH1 0x80 DUP3 ADD MSTORE PUSH1 0xE0 PUSH1 0xA0 DUP3 ADD MSTORE PUSH1 0x0 PUSH2 0xA1E PUSH1 0xE0 DUP4 ADD DUP6 PUSH2 0x811 JUMP JUMPDEST SWAP1 POP DUP3 PUSH1 0xC0 DUP4 ADD MSTORE SWAP9 SWAP8 POP POP POP POP POP POP POP POP JUMP JUMPDEST PUSH1 0x1 DUP2 DUP2 SHR SWAP1 DUP3 AND DUP1 PUSH2 0xA46 JUMPI PUSH1 0x7F DUP3 AND SWAP2 POP JUMPDEST PUSH1 0x20 DUP3 LT DUP2 SUB PUSH2 0xA66 JUMPI PUSH4 0x4E487B71 PUSH1 0xE0 SHL PUSH1 0x0 MSTORE PUSH1 0x22 PUSH1 0x4 MSTORE PUSH1 0x24 PUSH1 0x0 REVERT JUMPDEST POP SWAP2 SWAP1 POP JUMP JUMPDEST PUSH4 0x4E487B71 PUSH1 0xE0 SHL PUSH1 0x0 MSTORE PUSH1 0x11 PUSH1 0x4 MSTORE PUSH1 0x24 PUSH1 0x0 REVERT JUMPDEST DUP1 DUP3 ADD DUP3 DUP2 SLT PUSH1 0x0 DUP4 SLT DUP1 ISZERO DUP3 AND DUP3 ISZERO DUP3 AND OR ISZERO PUSH2 0xAA2 JUMPI PUSH2 0xAA2 PUSH2 0xA6C JUMP JUMPDEST POP POP SWAP3 SWAP2 POP POP JUMP JUMPDEST DUP1 DUP3 MUL PUSH1 0x0 DUP3 SLT PUSH1 0x1 PUSH1 0xFF SHL DUP5 EQ AND ISZERO PUSH2 0xAC6 JUMPI PUSH2 0xAC6 PUSH2 0xA6C JUMP JUMPDEST DUP2 DUP2 SDIV DUP4 EQ DUP3 ISZERO OR PUSH2 0xADA JUMPI PUSH2 0xADA PUSH2 0xA6C JUMP JUMPDEST SWAP3 SWAP2 POP POP JUMP JUMPDEST DUP2 DUP2 SUB DUP2 DUP2 GT ISZERO PUSH2 0xADA JUMPI PUSH2 0xADA PUSH2 0xA6C JUMP JUMPDEST PUSH1 0x0 DUP3 PUSH2 0xB10 JUMPI PUSH4 0x4E487B71 PUSH1 0xE0 SHL PUSH1 0x0 MSTORE PUSH1 0x12 PUSH1 0x4 MSTORE PUSH1 0x24 PUSH1 0x0 REVERT JUMPDEST POP DIV SWAP1 JUMP JUMPDEST DUP1 DUP3 MUL DUP2 ISZERO DUP3 DUP3 DIV DUP5 EQ OR PUSH2 0xADA JUMPI PUSH2 0xADA PUSH2 0xA6C JUMP JUMPDEST PUSH1 0x0 PUSH1 0x1 DUP3 ADD PUSH2 0xB3E JUMPI PUSH2 0xB3E PUSH2 0xA6C JUMP JUMPDEST POP PUSH1 0x1 ADD SWAP1 JUMP JUMPDEST DUP3 DUP2 MSTORE PUSH1 0x40 PUSH1 0x20 DUP3 ADD MSTORE PUSH1 0x0 PUSH2 0xB5E PUSH1 0x40 DUP4 ADD DUP5 PUSH2 0x811 JUMP JUMPDEST SWAP5 SWAP4 POP POP POP POP JUMP INVALID LOG2 PUSH5 0x6970667358 0x22 SLT KECCAK256 BLOCKHASH 0xBB 0xC2 EXTCODEHASH 0xE3 0xD CALLCODE 0x2B PUSH22 0xBA478EE20FD6C14F26401749C0A9519377ED0F2E55D7 0xEA PUSH5 0x736F6C6343 STOP ADDMOD EQ STOP CALLER "},"methodIdentifiers":{"commonsCore()":"40202015","curatorStats(address)":"dc784170","getCuratorStats(address)":"144c29ab","getScore(address)":"d47875d0","owner()":"8da5cb5b","renounceOwnership()":"715018a6","setCommonsCore(address)":"5b4a0323","transferOwnership(address)":"f2fde38b","updateScore(address,bool,bool,uint8,string,bool)":"9da5aea0"}}}}}