{
  "_format": "hh-sol-artifact-1",
  "contractName": "AuthorityScore",
  "sourceName": "contracts/AuthorityScore.sol",
  "abi": [
    {
      "inputs": [
        {
          "internalType": "address",
          "name": "initialOwner",
          "type": "address"
        }
      ],
      "stateMutability": "nonpayable",
      "type": "constructor"
    },
    {
      "inputs": [
        {
          "internalType": "address",
          "name": "owner",
          "type": "address"
        }
      ],
      "name": "OwnableInvalidOwner",
      "type": "error"
    },
    {
      "inputs": [
        {
          "internalType": "address",
          "name": "account",
          "type": "address"
        }
      ],
      "name": "OwnableUnauthorizedAccount",
      "type": "error"
    },
    {
      "anonymous": false,
      "inputs": [
        {
          "indexed": true,
          "internalType": "address",
          "name": "newCoreAddress",
          "type": "address"
        }
      ],
      "name": "CommonsCoreUpdated",
      "type": "event"
    },
    {
      "anonymous": false,
      "inputs": [
        {
          "indexed": true,
          "internalType": "address",
          "name": "previousOwner",
          "type": "address"
        },
        {
          "indexed": true,
          "internalType": "address",
          "name": "newOwner",
          "type": "address"
        }
      ],
      "name": "OwnershipTransferred",
      "type": "event"
    },
    {
      "anonymous": false,
      "inputs": [
        {
          "indexed": true,
          "internalType": "address",
          "name": "curator",
          "type": "address"
        },
        {
          "indexed": false,
          "internalType": "uint256",
          "name": "newScore",
          "type": "uint256"
        },
        {
          "indexed": false,
          "internalType": "string",
          "name": "activityType",
          "type": "string"
        }
      ],
      "name": "ScoreUpdated",
      "type": "event"
    },
    {
      "inputs": [],
      "name": "commonsCore",
      "outputs": [
        {
          "internalType": "address",
          "name": "",
          "type": "address"
        }
      ],
      "stateMutability": "view",
      "type": "function"
    },
    {
      "inputs": [
        {
          "internalType": "address",
          "name": "",
          "type": "address"
        }
      ],
      "name": "curatorStats",
      "outputs": [
        {
          "internalType": "uint256",
          "name": "authorityScore",
          "type": "uint256"
        },
        {
          "internalType": "uint256",
          "name": "totalPredictions",
          "type": "uint256"
        },
        {
          "internalType": "uint256",
          "name": "correctPredictions",
          "type": "uint256"
        },
        {
          "internalType": "uint256",
          "name": "totalBounties",
          "type": "uint256"
        },
        {
          "internalType": "uint256",
          "name": "successfulBounties",
          "type": "uint256"
        },
        {
          "internalType": "string",
          "name": "primaryDomain",
          "type": "string"
        },
        {
          "internalType": "uint256",
          "name": "lastActivityTimestamp",
          "type": "uint256"
        }
      ],
      "stateMutability": "view",
      "type": "function"
    },
    {
      "inputs": [
        {
          "internalType": "address",
          "name": "curator",
          "type": "address"
        }
      ],
      "name": "getCuratorStats",
      "outputs": [
        {
          "components": [
            {
              "internalType": "uint256",
              "name": "authorityScore",
              "type": "uint256"
            },
            {
              "internalType": "uint256",
              "name": "totalPredictions",
              "type": "uint256"
            },
            {
              "internalType": "uint256",
              "name": "correctPredictions",
              "type": "uint256"
            },
            {
              "internalType": "uint256",
              "name": "totalBounties",
              "type": "uint256"
            },
            {
              "internalType": "uint256",
              "name": "successfulBounties",
              "type": "uint256"
            },
            {
              "internalType": "string",
              "name": "primaryDomain",
              "type": "string"
            },
            {
              "internalType": "uint256",
              "name": "lastActivityTimestamp",
              "type": "uint256"
            }
          ],
          "internalType": "struct AuthorityScore.CuratorStats",
          "name": "",
          "type": "tuple"
        }
      ],
      "stateMutability": "view",
      "type": "function"
    },
    {
      "inputs": [
        {
          "internalType": "address",
          "name": "curator",
          "type": "address"
        }
      ],
      "name": "getScore",
      "outputs": [
        {
          "internalType": "uint256",
          "name": "",
          "type": "uint256"
        }
      ],
      "stateMutability": "view",
      "type": "function"
    },
    {
      "inputs": [],
      "name": "owner",
      "outputs": [
        {
          "internalType": "address",
          "name": "",
          "type": "address"
        }
      ],
      "stateMutability": "view",
      "type": "function"
    },
    {
      "inputs": [],
      "name": "renounceOwnership",
      "outputs": [],
      "stateMutability": "nonpayable",
      "type": "function"
    },
    {
      "inputs": [
        {
          "internalType": "address",
          "name": "_commonsCore",
          "type": "address"
        }
      ],
      "name": "setCommonsCore",
      "outputs": [],
      "stateMutability": "nonpayable",
      "type": "function"
    },
    {
      "inputs": [
        {
          "internalType": "address",
          "name": "newOwner",
          "type": "address"
        }
      ],
      "name": "transferOwnership",
      "outputs": [],
      "stateMutability": "nonpayable",
      "type": "function"
    },
    {
      "inputs": [
        {
          "internalType": "address",
          "name": "curator",
          "type": "address"
        },
        {
          "internalType": "bool",
          "name": "correct",
          "type": "bool"
        },
        {
          "internalType": "bool",
          "name": "early",
          "type": "bool"
        },
        {
          "internalType": "uint8",
          "name": "deviation",
          "type": "uint8"
        },
        {
          "internalType": "string",
          "name": "",
          "type": "string"
        },
        {
          "internalType": "bool",
          "name": "isBounty",
          "type": "bool"
        }
      ],
      "name": "updateScore",
      "outputs": [],
      "stateMutability": "nonpayable",
      "type": "function"
    }
  ],
  "bytecode": "0x608060405234801561001057600080fd5b50604051610c99380380610c9983398101604081905261002f916100be565b806001600160a01b03811661005e57604051631e4fbdf760e01b81526000600482015260240160405180910390fd5b6100678161006e565b50506100ee565b600080546001600160a01b038381166001600160a01b0319831681178455604051919092169283917f8be0079c531659141344cd1fd0a4f28419497f9722a3daafe3b4186f6b6457e09190a35050565b6000602082840312156100d057600080fd5b81516001600160a01b03811681146100e757600080fd5b9392505050565b610b9c806100fd6000396000f3fe608060405234801561001057600080fd5b50600436106100935760003560e01c80638da5cb5b116100665780638da5cb5b146101095780639da5aea01461011a578063d47875d01461012d578063dc78417014610164578063f2fde38b1461018a57600080fd5b8063144c29ab1461009857806340202015146100c15780635b4a0323146100ec578063715018a614610101575b600080fd5b6100ab6100a63660046107ef565b61019d565b6040516100b89190610857565b60405180910390f35b6002546100d4906001600160a01b031681565b6040516001600160a01b0390911681526020016100b8565b6100ff6100fa3660046107ef565b6102e2565b005b6100ff610381565b6000546001600160a01b03166100d4565b6100ff6101283660046108e2565b610395565b61015661013b3660046107ef565b6001600160a01b031660009081526001602052604090205490565b6040519081526020016100b8565b6101776101723660046107ef565b61064e565b6040516100b897969594939291906109ed565b6100ff6101983660046107ef565b610718565b6101dd6040518060e00160405280600081526020016000815260200160008152602001600081526020016000815260200160608152602001600081525090565b60016000836001600160a01b03166001600160a01b031681526020019081526020016000206040518060e0016040529081600082015481526020016001820154815260200160028201548152602001600382015481526020016004820154815260200160058201805461024f90610a32565b80601f016020809104026020016040519081016040528092919081815260200182805461027b90610a32565b80156102c85780601f1061029d576101008083540402835291602001916102c8565b820191906000526020600020905b8154815290600101906020018083116102ab57829003601f168201915b505050505081526020016006820154815250509050919050565b6102ea610756565b6001600160a01b0381166103375760405162461bcd60e51b815260206004820152600f60248201526e496e76616c6964206164647265737360881b60448201526064015b60405180910390fd5b600280546001600160a01b0319166001600160a01b0383169081179091556040517ff236eb4ca5dee573d4d5f18efc84bd4b4f01e20c8f723706a97f4b2f687bb6de90600090a250565b610389610756565b6103936000610783565b565b6002546001600160a01b031633146104015760405162461bcd60e51b815260206004820152602960248201527f417574686f7269747953636f72653a2063616c6c6572206973206e6f7420436f6044820152686d6d6f6e73436f726560b81b606482015260840161032e565b6001600160a01b038616600090815260016020526040812090821561044b578661042d57603119610430565b60645b9050851561044657610443603282610a82565b90505b610471565b86156104595750600a610471565b8460ff1660010361046c57506005610471565b506004195b85801561047e5750600081135b156104915761048e600282610aaa565b90505b6000826006015442116104a55760006104b4565b60068301546104b49042610ae0565b905060006104c562278d0083610af3565b845490915081156105105760006104dd836005610b15565b905060648111156104ec575060645b60646104f88282610ae0565b6105029084610b15565b61050c9190610af3565b9150505b600061051c8583610a82565b905060008112156105305760008655610534565b8086555b426006870155861561057a5760038601805490600061055283610b2c565b91905055508a156105755760048601805490600061056f83610b2c565b91905055505b6105af565b60018601805490600061058c83610b2c565b91905055508a156105af576002860180549060006105a983610b2c565b91905055505b8b6001600160a01b03167f2b535fbf4d2281f734a35408583a14d4e2b28653b00d761613e8758399dd6e6d87600001548961060a576040518060400160405280600881526020016721aaa920aa24a7a760c11b81525061062a565b60405180604001604052806006815260200165424f554e545960d01b8152505b604051610638929190610b45565b60405180910390a2505050505050505050505050565b600160205280600052604060002060009150905080600001549080600101549080600201549080600301549080600401549080600501805461068f90610a32565b80601f01602080910402602001604051908101604052809291908181526020018280546106bb90610a32565b80156107085780601f106106dd57610100808354040283529160200191610708565b820191906000526020600020905b8154815290600101906020018083116106eb57829003601f168201915b5050505050908060060154905087565b610720610756565b6001600160a01b03811661074a57604051631e4fbdf760e01b81526000600482015260240161032e565b61075381610783565b50565b6000546001600160a01b031633146103935760405163118cdaa760e01b815233600482015260240161032e565b600080546001600160a01b038381166001600160a01b0319831681178455604051919092169283917f8be0079c531659141344cd1fd0a4f28419497f9722a3daafe3b4186f6b6457e09190a35050565b80356001600160a01b03811681146107ea57600080fd5b919050565b60006020828403121561080157600080fd5b61080a826107d3565b9392505050565b6000815180845260005b818110156108375760208185018101518683018201520161081b565b506000602082860101526020601f19601f83011685010191505092915050565b6020815281516020820152602082015160408201526040820151606082015260608201516080820152608082015160a0820152600060a083015160e060c08401526108a6610100840182610811565b905060c084015160e08401528091505092915050565b803580151581146107ea57600080fd5b634e487b7160e01b600052604160045260246000fd5b60008060008060008060c087890312156108fb57600080fd5b610904876107d3565b9550610912602088016108bc565b9450610920604088016108bc565b9350606087013560ff8116811461093657600080fd5b9250608087013567ffffffffffffffff8082111561095357600080fd5b818901915089601f83011261096757600080fd5b813581811115610979576109796108cc565b604051601f8201601f19908116603f011681019083821181831017156109a1576109a16108cc565b816040528281528c60208487010111156109ba57600080fd5b8260208601602083013760006020848301015280965050505050506109e160a088016108bc565b90509295509295509295565b87815286602082015285604082015284606082015283608082015260e060a08201526000610a1e60e0830185610811565b90508260c083015298975050505050505050565b600181811c90821680610a4657607f821691505b602082108103610a6657634e487b7160e01b600052602260045260246000fd5b50919050565b634e487b7160e01b600052601160045260246000fd5b8082018281126000831280158216821582161715610aa257610aa2610a6c565b505092915050565b80820260008212600160ff1b84141615610ac657610ac6610a6c565b8181058314821517610ada57610ada610a6c565b92915050565b81810381811115610ada57610ada610a6c565b600082610b1057634e487b7160e01b600052601260045260246000fd5b500490565b8082028115828204841417610ada57610ada610a6c565b600060018201610b3e57610b3e610a6c565b5060010190565b828152604060208201526000610b5e6040830184610811565b94935050505056fea264697066735822122040bbc23fe30df22b75ba478ee20fd6c14f26401749c0a9519377ed0f2e55d7ea64736f6c63430008140033",
  "linkReferences": {},
  "deployedLinkReferences": {}
}