{
  "_format": "hh-sol-artifact-1",
  "contractName": "CommonsCore",
  "sourceName": "contracts/CommonsCore.sol",
  "abi": [
    {
      "inputs": [
        {
          "internalType": "address",
          "name": "initialOwner",
          "type": "address"
        },
        {
          "internalType": "address",
          "name": "_abcToken",
          "type": "address"
        },
        {
          "internalType": "address",
          "name": "_authorityScore",
          "type": "address"
        }
      ],
      "stateMutability": "nonpayable",
      "type": "constructor"
    },
    {
      "inputs": [
        {
          "internalType": "address",
          "name": "owner",
          "type": "address"
        }
      ],
      "name": "OwnableInvalidOwner",
      "type": "error"
    },
    {
      "inputs": [
        {
          "internalType": "address",
          "name": "account",
          "type": "address"
        }
      ],
      "name": "OwnableUnauthorizedAccount",
      "type": "error"
    },
    {
      "inputs": [],
      "name": "ReentrancyGuardReentrantCall",
      "type": "error"
    },
    {
      "anonymous": false,
      "inputs": [
        {
          "indexed": true,
          "internalType": "uint256",
          "name": "bountyId",
          "type": "uint256"
        },
        {
          "indexed": true,
          "internalType": "address",
          "name": "proposer",
          "type": "address"
        },
        {
          "indexed": false,
          "internalType": "uint256",
          "name": "amount",
          "type": "uint256"
        }
      ],
      "name": "BountyProposed",
      "type": "event"
    },
    {
      "anonymous": false,
      "inputs": [
        {
          "indexed": true,
          "internalType": "uint256",
          "name": "bountyId",
          "type": "uint256"
        },
        {
          "indexed": false,
          "internalType": "enum CommonsCore.BountyState",
          "name": "newState",
          "type": "uint8"
        }
      ],
      "name": "BountyStateChanged",
      "type": "event"
    },
    {
      "anonymous": false,
      "inputs": [
        {
          "indexed": true,
          "internalType": "uint256",
          "name": "paperId",
          "type": "uint256"
        },
        {
          "indexed": false,
          "internalType": "enum CommonsCore.QualityTier",
          "name": "tier",
          "type": "uint8"
        },
        {
          "indexed": false,
          "internalType": "uint256",
          "name": "score",
          "type": "uint256"
        }
      ],
      "name": "ConsensusCalculated",
      "type": "event"
    },
    {
      "anonymous": false,
      "inputs": [
        {
          "indexed": true,
          "internalType": "address",
          "name": "previousOwner",
          "type": "address"
        },
        {
          "indexed": true,
          "internalType": "address",
          "name": "newOwner",
          "type": "address"
        }
      ],
      "name": "OwnershipTransferred",
      "type": "event"
    },
    {
      "anonymous": false,
      "inputs": [
        {
          "indexed": true,
          "internalType": "uint256",
          "name": "paperId",
          "type": "uint256"
        },
        {
          "indexed": true,
          "internalType": "address",
          "name": "curator",
          "type": "address"
        },
        {
          "indexed": false,
          "internalType": "enum CommonsCore.QualityTier",
          "name": "tier",
          "type": "uint8"
        }
      ],
      "name": "PredictionSubmitted",
      "type": "event"
    },
    {
      "anonymous": false,
      "inputs": [
        {
          "indexed": true,
          "internalType": "address",
          "name": "user",
          "type": "address"
        },
        {
          "indexed": false,
          "internalType": "uint256",
          "name": "amount",
          "type": "uint256"
        }
      ],
      "name": "StakeDeposited",
      "type": "event"
    },
    {
      "anonymous": false,
      "inputs": [
        {
          "indexed": true,
          "internalType": "address",
          "name": "user",
          "type": "address"
        },
        {
          "indexed": false,
          "internalType": "uint256",
          "name": "amount",
          "type": "uint256"
        }
      ],
      "name": "StakeWithdrawn",
      "type": "event"
    },
    {
      "anonymous": false,
      "inputs": [
        {
          "indexed": true,
          "internalType": "uint256",
          "name": "bountyId",
          "type": "uint256"
        },
        {
          "indexed": true,
          "internalType": "address",
          "name": "voter",
          "type": "address"
        },
        {
          "indexed": false,
          "internalType": "bool",
          "name": "support",
          "type": "bool"
        },
        {
          "indexed": false,
          "internalType": "uint256",
          "name": "weight",
          "type": "uint256"
        }
      ],
      "name": "VoteCast",
      "type": "event"
    },
    {
      "inputs": [],
      "name": "CURATION_PENALTY",
      "outputs": [
        {
          "internalType": "uint256",
          "name": "",
          "type": "uint256"
        }
      ],
      "stateMutability": "view",
      "type": "function"
    },
    {
      "inputs": [],
      "name": "CURATION_REWARD_EARLY",
      "outputs": [
        {
          "internalType": "uint256",
          "name": "",
          "type": "uint256"
        }
      ],
      "stateMutability": "view",
      "type": "function"
    },
    {
      "inputs": [],
      "name": "CURATION_REWARD_WIN",
      "outputs": [
        {
          "internalType": "uint256",
          "name": "",
          "type": "uint256"
        }
      ],
      "stateMutability": "view",
      "type": "function"
    },
    {
      "inputs": [],
      "name": "CURATION_STAKE",
      "outputs": [
        {
          "internalType": "uint256",
          "name": "",
          "type": "uint256"
        }
      ],
      "stateMutability": "view",
      "type": "function"
    },
    {
      "inputs": [],
      "name": "PROPOSAL_STAKE",
      "outputs": [
        {
          "internalType": "uint256",
          "name": "",
          "type": "uint256"
        }
      ],
      "stateMutability": "view",
      "type": "function"
    },
    {
      "inputs": [],
      "name": "abcToken",
      "outputs": [
        {
          "internalType": "contract IERC20",
          "name": "",
          "type": "address"
        }
      ],
      "stateMutability": "view",
      "type": "function"
    },
    {
      "inputs": [],
      "name": "authorityScore",
      "outputs": [
        {
          "internalType": "contract AuthorityScore",
          "name": "",
          "type": "address"
        }
      ],
      "stateMutability": "view",
      "type": "function"
    },
    {
      "inputs": [
        {
          "internalType": "uint256",
          "name": "",
          "type": "uint256"
        }
      ],
      "name": "bounties",
      "outputs": [
        {
          "internalType": "uint256",
          "name": "id",
          "type": "uint256"
        },
        {
          "internalType": "address",
          "name": "proposer",
          "type": "address"
        },
        {
          "internalType": "string",
          "name": "ipfsHash",
          "type": "string"
        },
        {
          "internalType": "uint256",
          "name": "amount",
          "type": "uint256"
        },
        {
          "internalType": "uint256",
          "name": "deadline",
          "type": "uint256"
        },
        {
          "internalType": "enum CommonsCore.BountyState",
          "name": "state",
          "type": "uint8"
        },
        {
          "internalType": "address",
          "name": "claimedBy",
          "type": "address"
        },
        {
          "internalType": "uint256",
          "name": "voteFor",
          "type": "uint256"
        },
        {
          "internalType": "uint256",
          "name": "voteAgainst",
          "type": "uint256"
        }
      ],
      "stateMutability": "view",
      "type": "function"
    },
    {
      "inputs": [
        {
          "internalType": "uint256",
          "name": "",
          "type": "uint256"
        },
        {
          "internalType": "address",
          "name": "",
          "type": "address"
        }
      ],
      "name": "bountyVotes",
      "outputs": [
        {
          "internalType": "bool",
          "name": "support",
          "type": "bool"
        },
        {
          "internalType": "uint256",
          "name": "weight",
          "type": "uint256"
        },
        {
          "internalType": "uint256",
          "name": "timestamp",
          "type": "uint256"
        }
      ],
      "stateMutability": "view",
      "type": "function"
    },
    {
      "inputs": [
        {
          "internalType": "uint256",
          "name": "paperId",
          "type": "uint256"
        }
      ],
      "name": "calculateConsensus",
      "outputs": [],
      "stateMutability": "nonpayable",
      "type": "function"
    },
    {
      "inputs": [
        {
          "internalType": "uint256",
          "name": "bountyId",
          "type": "uint256"
        }
      ],
      "name": "claimBounty",
      "outputs": [],
      "stateMutability": "nonpayable",
      "type": "function"
    },
    {
      "inputs": [
        {
          "internalType": "uint256",
          "name": "paperId",
          "type": "uint256"
        },
        {
          "internalType": "enum CommonsCore.QualityTier",
          "name": "tier",
          "type": "uint8"
        }
      ],
      "name": "curatePaper",
      "outputs": [],
      "stateMutability": "nonpayable",
      "type": "function"
    },
    {
      "inputs": [
        {
          "internalType": "uint256",
          "name": "paperId",
          "type": "uint256"
        }
      ],
      "name": "distributeRewards",
      "outputs": [],
      "stateMutability": "nonpayable",
      "type": "function"
    },
    {
      "inputs": [
        {
          "internalType": "uint256",
          "name": "bountyId",
          "type": "uint256"
        }
      ],
      "name": "finalizeBountyVote",
      "outputs": [],
      "stateMutability": "nonpayable",
      "type": "function"
    },
    {
      "inputs": [
        {
          "internalType": "address",
          "name": "voter",
          "type": "address"
        }
      ],
      "name": "getConvictionScore",
      "outputs": [
        {
          "internalType": "uint256",
          "name": "",
          "type": "uint256"
        }
      ],
      "stateMutability": "view",
      "type": "function"
    },
    {
      "inputs": [
        {
          "internalType": "address",
          "name": "",
          "type": "address"
        }
      ],
      "name": "governanceStakes",
      "outputs": [
        {
          "internalType": "uint256",
          "name": "amount",
          "type": "uint256"
        },
        {
          "internalType": "uint256",
          "name": "since",
          "type": "uint256"
        }
      ],
      "stateMutability": "view",
      "type": "function"
    },
    {
      "inputs": [
        {
          "internalType": "uint256",
          "name": "",
          "type": "uint256"
        },
        {
          "internalType": "address",
          "name": "",
          "type": "address"
        }
      ],
      "name": "hasPredicted",
      "outputs": [
        {
          "internalType": "bool",
          "name": "",
          "type": "bool"
        }
      ],
      "stateMutability": "view",
      "type": "function"
    },
    {
      "inputs": [],
      "name": "nextBountyId",
      "outputs": [
        {
          "internalType": "uint256",
          "name": "",
          "type": "uint256"
        }
      ],
      "stateMutability": "view",
      "type": "function"
    },
    {
      "inputs": [],
      "name": "owner",
      "outputs": [
        {
          "internalType": "address",
          "name": "",
          "type": "address"
        }
      ],
      "stateMutability": "view",
      "type": "function"
    },
    {
      "inputs": [
        {
          "internalType": "uint256",
          "name": "",
          "type": "uint256"
        }
      ],
      "name": "paperConsensus",
      "outputs": [
        {
          "internalType": "bool",
          "name": "calculated",
          "type": "bool"
        },
        {
          "internalType": "uint256",
          "name": "score",
          "type": "uint256"
        },
        {
          "internalType": "enum CommonsCore.QualityTier",
          "name": "tier",
          "type": "uint8"
        },
        {
          "internalType": "uint256",
          "name": "curatorCount",
          "type": "uint256"
        },
        {
          "internalType": "uint256",
          "name": "confidence",
          "type": "uint256"
        }
      ],
      "stateMutability": "view",
      "type": "function"
    },
    {
      "inputs": [
        {
          "internalType": "uint256",
          "name": "",
          "type": "uint256"
        },
        {
          "internalType": "uint256",
          "name": "",
          "type": "uint256"
        }
      ],
      "name": "paperPredictions",
      "outputs": [
        {
          "internalType": "address",
          "name": "curator",
          "type": "address"
        },
        {
          "internalType": "enum CommonsCore.QualityTier",
          "name": "tier",
          "type": "uint8"
        },
        {
          "internalType": "uint256",
          "name": "timestamp",
          "type": "uint256"
        },
        {
          "internalType": "bool",
          "name": "claimed",
          "type": "bool"
        }
      ],
      "stateMutability": "view",
      "type": "function"
    },
    {
      "inputs": [
        {
          "internalType": "string",
          "name": "ipfsHash",
          "type": "string"
        },
        {
          "internalType": "uint256",
          "name": "amount",
          "type": "uint256"
        }
      ],
      "name": "proposeBounty",
      "outputs": [],
      "stateMutability": "nonpayable",
      "type": "function"
    },
    {
      "inputs": [],
      "name": "renounceOwnership",
      "outputs": [],
      "stateMutability": "nonpayable",
      "type": "function"
    },
    {
      "inputs": [
        {
          "internalType": "uint256",
          "name": "amount",
          "type": "uint256"
        }
      ],
      "name": "stakeForGovernance",
      "outputs": [],
      "stateMutability": "nonpayable",
      "type": "function"
    },
    {
      "inputs": [
        {
          "internalType": "address",
          "name": "newOwner",
          "type": "address"
        }
      ],
      "name": "transferOwnership",
      "outputs": [],
      "stateMutability": "nonpayable",
      "type": "function"
    },
    {
      "inputs": [
        {
          "internalType": "uint256",
          "name": "amount",
          "type": "uint256"
        }
      ],
      "name": "unstakeGovernance",
      "outputs": [],
      "stateMutability": "nonpayable",
      "type": "function"
    },
    {
      "inputs": [
        {
          "internalType": "uint256",
          "name": "bountyId",
          "type": "uint256"
        },
        {
          "internalType": "bool",
          "name": "support",
          "type": "bool"
        }
      ],
      "name": "voteOnBounty",
      "outputs": [],
      "stateMutability": "nonpayable",
      "type": "function"
    }
  ],
  "bytecode": "0x60806040523480156200001157600080fd5b506040516200235e3803806200235e833981016040819052620000349162000117565b6001600055826001600160a01b0381166200006957604051631e4fbdf760e01b81526000600482015260240160405180910390fd5b6200007481620000a8565b50600280546001600160a01b039384166001600160a01b031991821617909155600380549290931691161790555062000161565b600180546001600160a01b038381166001600160a01b0319831681179093556040519116919082907f8be0079c531659141344cd1fd0a4f28419497f9722a3daafe3b4186f6b6457e090600090a35050565b80516001600160a01b03811681146200011257600080fd5b919050565b6000806000606084860312156200012d57600080fd5b6200013884620000fa565b92506200014860208501620000fa565b91506200015860408501620000fa565b90509250925092565b6121ed80620001716000396000f3fe608060405234801561001057600080fd5b50600436106101a95760003560e01c8063a570bdcc116100f9578063dc2f874411610097578063f2fde38b11610071578063f2fde38b14610462578063f8efd7ba14610475578063fd14fad414610488578063ffb320631461049157600080fd5b8063dc2f874414610417578063e0e8ebf21461043f578063e75741281461044f57600080fd5b8063c1a0d1cd116100d3578063c1a0d1cd146103a4578063c5e23ed2146103e0578063c93bc94e146103f3578063ce199f691461040657600080fd5b8063a570bdcc1461037e578063a9722c43146101ae578063b4bc4dd41461039157600080fd5b8063715018a61161016657806385d6b4261161014057806385d6b426146102a45780638da5cb5b146102e257806396161f4c14610307578063a4d8857a1461032a57600080fd5b8063715018a61461023157806377795b19146102395780638491969c1461024957600080fd5b80630f65f6d5146101ae5780631928948c146101d057806344021ad7146101e557806359974e38146101f857806369e364ce1461020b5780636a59f3791461021e575b600080fd5b6101bd678ac7230489e8000081565b6040519081526020015b60405180910390f35b6101e36101de366004611bff565b6104a4565b005b6101e36101f3366004611bff565b610627565b6101e3610206366004611bff565b6106f7565b6101e3610219366004611bff565b610b05565b6101e361022c366004611c26565b610c83565b6101e3610e70565b6101bd6802b5e3af16b188000081565b610287610257366004611c72565b600960209081526000928352604080842090915290825290208054600182015460029092015460ff909116919083565b6040805193151584526020840192909252908201526060016101c7565b6102d26102b2366004611c72565b600660209081526000928352604080842090915290825290205460ff1681565b60405190151581526020016101c7565b6001546001600160a01b03165b6040516001600160a01b0390911681526020016101c7565b61031a610315366004611c9e565b610e84565b6040516101c79493929190611cea565b61036d610338366004611bff565b6005602052600090815260409020805460018201546002830154600384015460049094015460ff938416949293909116919085565b6040516101c7959493929190611d1e565b6101bd61038c366004611d4e565b610edb565b6101e361039f366004611bff565b610f7d565b6103cb6103b2366004611d4e565b600a602052600090815260409020805460019091015482565b604080519283526020830191909152016101c7565b6101e36103ee366004611d86565b611303565b6003546102ef906001600160a01b031681565b6101bd69010f0cf064dd5920000081565b61042a610425366004611bff565b61154e565b6040516101c799989796959493929190611e4b565b6101bd6801158e460913d0000081565b6002546102ef906001600160a01b031681565b6101e3610470366004611d4e565b611636565b6101e3610483366004611bff565b611671565b6101bd60075481565b6101e361049f366004611ef1565b61181a565b6104ac611afd565b336000908152600a6020526040902080548211156105065760405162461bcd60e51b8152602060048201526012602482015271496e73756666696369656e74207374616b6560701b60448201526064015b60405180910390fd5b8181600001600082825461051a9190611f30565b9091555050805460000361053057600060018201555b60025460405163a9059cbb60e01b8152336004820152602481018490526001600160a01b039091169063a9059cbb906044016020604051808303816000875af1158015610581573d6000803e3d6000fd5b505050506040513d601f19601f820116820180604052508101906105a59190611f49565b6105e35760405162461bcd60e51b815260206004820152600f60248201526e151c985b9cd9995c8819985a5b1959608a1b60448201526064016104fd565b60405182815233907f8108595eb6bad3acefa9da467d90cc2217686d5c5ac85460f8b7849c840645fc906020015b60405180910390a2506106246001600055565b50565b60008181526008602052604090206001600582015460ff16600481111561065057610650611cc0565b1461068a5760405162461bcd60e51b815260206004820152600a6024820152694e6f742061637469766560b01b60448201526064016104fd565b600581015461010090046001600160a01b0316156106dc5760405162461bcd60e51b815260206004820152600f60248201526e105b1c9958591e4818db185a5b5959608a1b60448201526064016104fd565b6005018054610100600160a81b031916336101000217905550565b6106ff611afd565b60008181526005602052604090205460ff166107535760405162461bcd60e51b8152602060048201526013602482015272436f6e73656e737573206e6f7420726561647960681b60448201526064016104fd565b60008181526004602090815260408083206005909252822060020154909160ff909116905b8254811015610af85782818154811061079357610793611f66565b600091825260209091206002600390920201015460ff16610ae65760018382815481106107c2576107c2611f66565b906000526020600020906003020160020160006101000a81548160ff02191690831515021790555060008060008085600381111561080257610802611cc0565b87868154811061081457610814611f66565b6000918252602090912060039182020154600160a01b900460ff169081111561083f5761083f611cc0565b6108499190611f7c565b905060008112156108605761085d81611fa3565b90505b806000036108c35760019250610887678ac7230489e800006802b5e3af16b1880000611fbf565b875490945061089890600490611fd2565b8510156108be576108bb6801158e460913d000006802b5e3af16b1880000611fbf565b93505b61091e565b806001036108fc576108de6002678ac7230489e80000611fd2565b6108f1906802b5e3af16b1880000611fbf565b93506001915061091e565b610917678ac7230489e800006802b5e3af16b1880000611f30565b9350600291505b60025487546001600160a01b039091169063a9059cbb9089908890811061094757610947611f66565b600091825260209091206003909102015460405160e083901b6001600160e01b03191681526001600160a01b039091166004820152602481018790526044016020604051808303816000875af11580156109a5573d6000803e3d6000fd5b505050506040513d601f19601f820116820180604052508101906109c99190611f49565b610a055760405162461bcd60e51b815260206004820152600d60248201526c14185e5bdd5d0819985a5b1959609a1b60448201526064016104fd565b60035487546001600160a01b0390911690639da5aea090899088908110610a2e57610a2e611f66565b600091825260209091206003909102015489546001600160a01b03909116908690610a5b90600490611fd2565b6040516001600160e01b031960e086901b1681526001600160a01b03909316600484015290151560248301528810604482015260ff8516606482015260c06084820152600060c4820181905260a482015260e401600060405180830381600087803b158015610ac957600080fd5b505af1158015610add573d6000803e3d6000fd5b50505050505050505b80610af081611ff4565b915050610778565b5050506106246001600055565b610b0d611afd565b60008111610b525760405162461bcd60e51b81526020600482015260126024820152710416d6f756e74206d757374206265203e20360741b60448201526064016104fd565b6002546040516323b872dd60e01b8152336004820152306024820152604481018390526001600160a01b03909116906323b872dd906064016020604051808303816000875af1158015610ba9573d6000803e3d6000fd5b505050506040513d601f19601f82011682018060405250810190610bcd9190611f49565b610c0b5760405162461bcd60e51b815260206004820152600f60248201526e151c985b9cd9995c8819985a5b1959608a1b60448201526064016104fd565b336000908152600a60205260408120805490918391839190610c2e908490611fbf565b90915550506001810154600003610c4a57426001820155610c51565b4260018201555b60405182815233907f0a7bb2e28cc4698aac06db79cf9163bfcc20719286cf59fa7d492ceda1b8edc290602001610611565b600082815260086020526040812090600582015460ff166004811115610cab57610cab611cc0565b14610ce55760405162461bcd60e51b815260206004820152600a6024820152694e6f7420766f74696e6760b01b60448201526064016104fd565b80600401544210610d285760405162461bcd60e51b815260206004820152600d60248201526c159bdd1a5b99c818db1bdcd959609a1b60448201526064016104fd565b6000610d3333610edb565b905060008111610d755760405162461bcd60e51b815260206004820152600d60248201526c27379031b7b73b34b1ba34b7b760991b60448201526064016104fd565b60008481526009602090815260408083203384529091529020600181015415610dd05760405162461bcd60e51b815260206004820152600d60248201526c105b1c9958591e481d9bdd1959609a1b60448201526064016104fd565b805460ff19168415801591909117825560018201839055426002830155610e105781836006016000828254610e059190611fbf565b90915550610e2a9050565b81836007016000828254610e249190611fbf565b90915550505b60408051851515815260208101849052339187917fcbdf6214089cba887ecbf35a0b6a734589959c9763342c756bb2a80ca2bc9f6e910160405180910390a35050505050565b610e78611b27565b610e826000611b54565b565b60046020528160005260406000208181548110610ea057600080fd5b60009182526020909120600390910201805460018201546002909201546001600160a01b038216945060ff600160a01b909204821693501684565b6001600160a01b0381166000908152600a602090815260408083208151808301909252805480835260019091015492820192909252908203610f205750600092915050565b600062015180826020015142610f369190611f30565b610f409190611fd2565b90506000808211610f52576000610f5b565b610f5b82611ba6565b9050610f68816001611fbf565b8351610f74919061200d565b95945050505050565b60008181526005602052604090205460ff1615610fd15760405162461bcd60e51b8152602060048201526012602482015271105b1c9958591e4818d85b18dd5b185d195960721b60448201526064016104fd565b6000818152600460205260409020805461101e5760405162461bcd60e51b815260206004820152600e60248201526d4e6f2070726564696374696f6e7360901b60448201526064016104fd565b60408051600480825260a08201909252600091829182916020820160808036833701905050905060005b84548110156111a55760035485546000916001600160a01b03169063d47875d09088908590811061107b5761107b611f66565b600091825260209091206003909102015460405160e083901b6001600160e01b03191681526001600160a01b039091166004820152602401602060405180830381865afa1580156110d0573d6000803e3d6000fd5b505050506040513d601f19601f820116820180604052508101906110f49190612024565b905080600003611102575060645b600086838154811061111657611116611f66565b6000918252602090912060039182020154600160a01b900460ff169081111561114157611141611cc0565b905061114d828261200d565b6111579086611fbf565b94506111638287611fbf565b955083818151811061117757611177611f66565b60200260200101805180919061118c90611ff4565b815250505050808061119d90611ff4565b915050611048565b506000836111b484606461200d565b6111be9190611fd2565b9050600061012c6111d083606461200d565b6111da9190611fd2565b9050600060328310156111ef57506000611215565b609683101561120057506001611215565b60fa83101561121157506002611215565b5060035b6040518060a0016040528060011515815260200183815260200182600381111561124157611241611cc0565b81528854602080830191909152606460409283015260008b8152600582528290208351815490151560ff19918216178255918401516001808301919091559284015160028201805492949193909216908360038111156112a3576112a3611cc0565b02179055506060820151816003015560808201518160040155905050877f33725fd9cb2397d79770141c947e8aaa814d4d1c424c4a35bc2b5fa6511ce28b82846040516112f192919061203d565b60405180910390a25050505050505050565b61130b611afd565b6002546040516323b872dd60e01b815233600482015230602482015269010f0cf064dd5920000060448201526001600160a01b03909116906323b872dd906064016020604051808303816000875af115801561136b573d6000803e3d6000fd5b505050506040513d601f19601f8201168201806040525081019061138f9190611f49565b6113ca5760405162461bcd60e51b815260206004820152600c60248201526b14dd185ad94819985a5b195960a21b60448201526064016104fd565b60078054600091826113db83611ff4565b919050559050604051806101200160405280828152602001336001600160a01b031681526020018481526020018381526020014262093a8061141d9190611fbf565b8152602001600081526000602080830182905260408084018390526060909301829052848252600881529082902083518155908301516001820180546001600160a01b0319166001600160a01b0390921691909117905590820151600282019061148790826120db565b50606082015181600301556080820151816004015560a08201518160050160006101000a81548160ff021916908360048111156114c6576114c6611cc0565b021790555060c0820151600582018054610100600160a81b0319166101006001600160a01b03909316830217905560e0830151600683015590910151600790910155604051828152339082907f70f218c57229cc72ace59f33ddc631c235af53202023259d4c649c85cd4213bc9060200160405180910390a35061154a6001600055565b5050565b60086020526000908152604090208054600182015460028301805492936001600160a01b039092169261158090612058565b80601f01602080910402602001604051908101604052809291908181526020018280546115ac90612058565b80156115f95780601f106115ce576101008083540402835291602001916115f9565b820191906000526020600020905b8154815290600101906020018083116115dc57829003601f168201915b5050505060038301546004840154600585015460068601546007909601549495929491935060ff8116926101009091046001600160a01b03169189565b61163e611b27565b6001600160a01b03811661166857604051631e4fbdf760e01b8152600060048201526024016104fd565b61062481611b54565b600081815260086020526040812090600582015460ff16600481111561169957611699611cc0565b146116d35760405162461bcd60e51b815260206004820152600a6024820152694e6f7420766f74696e6760b01b60448201526064016104fd565b806004015442101561171a5760405162461bcd60e51b815260206004820152601060248201526f159bdd1a5b99c81b9bdd08195b99195960821b60448201526064016104fd565b8060070154816006015411156117c55760058101805460ff191660019081179091556002549082015460405163a9059cbb60e01b81526001600160a01b03918216600482015269010f0cf064dd59200000602482015291169063a9059cbb906044016020604051808303816000875af115801561179b573d6000803e3d6000fd5b505050506040513d601f19601f820116820180604052508101906117bf9190611f49565b506117d5565b60058101805460ff191660041790555b600581015460405183917f9451051bdaad14748f5580b965649ce7553a33e793a6fc51b51c2f923f84c2d59161180e9160ff169061219b565b60405180910390a25050565b611822611afd565b600082815260066020908152604080832033845290915290205460ff161561188c5760405162461bcd60e51b815260206004820152601a60248201527f416c72656164792063757261746564207468697320706170657200000000000060448201526064016104fd565b60008281526005602052604090205460ff16156118eb5760405162461bcd60e51b815260206004820152601960248201527f436f6e73656e73757320616c726561647920726561636865640000000000000060448201526064016104fd565b6002546040516323b872dd60e01b81523360048201523060248201526802b5e3af16b188000060448201526001600160a01b03909116906323b872dd906064016020604051808303816000875af115801561194a573d6000803e3d6000fd5b505050506040513d601f19601f8201168201806040525081019061196e9190611f49565b6119b25760405162461bcd60e51b815260206004820152601560248201527414dd185ad9481d1c985b9cd9995c8819985a5b1959605a1b60448201526064016104fd565b600460008381526020019081526020016000206040518060800160405280336001600160a01b031681526020018360038111156119f1576119f1611cc0565b815242602080830191909152600060409092018290528354600181018555938252908190208251600394850290910180546001600160a01b039092166001600160a01b031983168117825592840151939490939284926001600160a81b0319161790600160a01b908490811115611a6a57611a6a611cc0565b02179055506040828101516001808401919091556060909301516002909201805492151560ff199384161790556000858152600660209081528282203380845291529082902080549093169093179091555183907f85b6b629de4425e7b6367b099ca8da43fda4f964873f921cc5e5094ea2895b1190611aeb9085906121a9565b60405180910390a361154a6001600055565b600260005403611b2057604051633ee5aeb560e01b815260040160405180910390fd5b6002600055565b6001546001600160a01b03163314610e825760405163118cdaa760e01b81523360048201526024016104fd565b600180546001600160a01b038381166001600160a01b0319831681179093556040519116919082907f8be0079c531659141344cd1fd0a4f28419497f9722a3daafe3b4186f6b6457e090600090a35050565b6000806002611bb6846001611fbf565b611bc09190611fd2565b90508291505b81811015611bf957905080600281611bde8186611fd2565b611be89190611fbf565b611bf29190611fd2565b9050611bc6565b50919050565b600060208284031215611c1157600080fd5b5035919050565b801515811461062457600080fd5b60008060408385031215611c3957600080fd5b823591506020830135611c4b81611c18565b809150509250929050565b80356001600160a01b0381168114611c6d57600080fd5b919050565b60008060408385031215611c8557600080fd5b82359150611c9560208401611c56565b90509250929050565b60008060408385031215611cb157600080fd5b50508035926020909101359150565b634e487b7160e01b600052602160045260246000fd5b60048110611ce657611ce6611cc0565b9052565b6001600160a01b038516815260808101611d076020830186611cd6565b836040830152821515606083015295945050505050565b85151581526020810185905260a08101611d3b6040830186611cd6565b6060820193909352608001529392505050565b600060208284031215611d6057600080fd5b611d6982611c56565b9392505050565b634e487b7160e01b600052604160045260246000fd5b60008060408385031215611d9957600080fd5b823567ffffffffffffffff80821115611db157600080fd5b818501915085601f830112611dc557600080fd5b813581811115611dd757611dd7611d70565b604051601f8201601f19908116603f01168101908382118183101715611dff57611dff611d70565b81604052828152886020848701011115611e1857600080fd5b826020860160208301376000602093820184015298969091013596505050505050565b60058110611ce657611ce6611cc0565b60006101208b8352602060018060a01b038c16818501528160408501528a518083860152600092505b80831015611e93578b8301820151858401610140015291810191611e74565b6101409250600083828701015282601f19601f8301168601019350505050876060830152866080830152611eca60a0830187611e3b565b6001600160a01b03851660c083015260e08201939093526101000152979650505050505050565b60008060408385031215611f0457600080fd5b82359150602083013560048110611c4b57600080fd5b634e487b7160e01b600052601160045260246000fd5b81810381811115611f4357611f43611f1a565b92915050565b600060208284031215611f5b57600080fd5b8151611d6981611c18565b634e487b7160e01b600052603260045260246000fd5b8181036000831280158383131683831282161715611f9c57611f9c611f1a565b5092915050565b6000600160ff1b8201611fb857611fb8611f1a565b5060000390565b80820180821115611f4357611f43611f1a565b600082611fef57634e487b7160e01b600052601260045260246000fd5b500490565b60006001820161200657612006611f1a565b5060010190565b8082028115828204841417611f4357611f43611f1a565b60006020828403121561203657600080fd5b5051919050565b6040810161204b8285611cd6565b8260208301529392505050565b600181811c9082168061206c57607f821691505b602082108103611bf957634e487b7160e01b600052602260045260246000fd5b601f8211156120d657600081815260208120601f850160051c810160208610156120b35750805b601f850160051c820191505b818110156120d2578281556001016120bf565b5050505b505050565b815167ffffffffffffffff8111156120f5576120f5611d70565b612109816121038454612058565b8461208c565b602080601f83116001811461213e57600084156121265750858301515b600019600386901b1c1916600185901b1785556120d2565b600085815260208120601f198616915b8281101561216d5788860151825594840194600190910190840161214e565b508582101561218b5787850151600019600388901b60f8161c191681555b5050505050600190811b01905550565b60208101611f438284611e3b565b60208101611f438284611cd656fea2646970667358221220d2c562d5beb02a4f4ac6904c5f80ae68b0151538d9d768c37c09897fbc4ace0364736f6c63430008140033",
  "linkReferences": {},
  "deployedLinkReferences": {}
}