{
  "_format": "hh-sol-artifact-1",
  "contractName": "ABCToken",
  "sourceName": "contracts/ABCToken.sol",
  "abi": [
    {
      "inputs": [
        {
          "internalType": "address",
          "name": "initialOwner",
          "type": "address"
        }
      ],
      "stateMutability": "nonpayable",
      "type": "constructor"
    },
    {
      "inputs": [],
      "name": "CheckpointUnorderedInsertion",
      "type": "error"
    },
    {
      "inputs": [],
      "name": "ECDSAInvalidSignature",
      "type": "error"
    },
    {
      "inputs": [
        {
          "internalType": "uint256",
          "name": "length",
          "type": "uint256"
        }
      ],
      "name": "ECDSAInvalidSignatureLength",
      "type": "error"
    },
    {
      "inputs": [
        {
          "internalType": "bytes32",
          "name": "s",
          "type": "bytes32"
        }
      ],
      "name": "ECDSAInvalidSignatureS",
      "type": "error"
    },
    {
      "inputs": [
        {
          "internalType": "uint256",
          "name": "increasedSupply",
          "type": "uint256"
        },
        {
          "internalType": "uint256",
          "name": "cap",
          "type": "uint256"
        }
      ],
      "name": "ERC20ExceededSafeSupply",
      "type": "error"
    },
    {
      "inputs": [
        {
          "internalType": "address",
          "name": "spender",
          "type": "address"
        },
        {
          "internalType": "uint256",
          "name": "allowance",
          "type": "uint256"
        },
        {
          "internalType": "uint256",
          "name": "needed",
          "type": "uint256"
        }
      ],
      "name": "ERC20InsufficientAllowance",
      "type": "error"
    },
    {
      "inputs": [
        {
          "internalType": "address",
          "name": "sender",
          "type": "address"
        },
        {
          "internalType": "uint256",
          "name": "balance",
          "type": "uint256"
        },
        {
          "internalType": "uint256",
          "name": "needed",
          "type": "uint256"
        }
      ],
      "name": "ERC20InsufficientBalance",
      "type": "error"
    },
    {
      "inputs": [
        {
          "internalType": "address",
          "name": "approver",
          "type": "address"
        }
      ],
      "name": "ERC20InvalidApprover",
      "type": "error"
    },
    {
      "inputs": [
        {
          "internalType": "address",
          "name": "receiver",
          "type": "address"
        }
      ],
      "name": "ERC20InvalidReceiver",
      "type": "error"
    },
    {
      "inputs": [
        {
          "internalType": "address",
          "name": "sender",
          "type": "address"
        }
      ],
      "name": "ERC20InvalidSender",
      "type": "error"
    },
    {
      "inputs": [
        {
          "internalType": "address",
          "name": "spender",
          "type": "address"
        }
      ],
      "name": "ERC20InvalidSpender",
      "type": "error"
    },
    {
      "inputs": [
        {
          "internalType": "uint256",
          "name": "deadline",
          "type": "uint256"
        }
      ],
      "name": "ERC2612ExpiredSignature",
      "type": "error"
    },
    {
      "inputs": [
        {
          "internalType": "address",
          "name": "signer",
          "type": "address"
        },
        {
          "internalType": "address",
          "name": "owner",
          "type": "address"
        }
      ],
      "name": "ERC2612InvalidSigner",
      "type": "error"
    },
    {
      "inputs": [
        {
          "internalType": "uint256",
          "name": "timepoint",
          "type": "uint256"
        },
        {
          "internalType": "uint48",
          "name": "clock",
          "type": "uint48"
        }
      ],
      "name": "ERC5805FutureLookup",
      "type": "error"
    },
    {
      "inputs": [],
      "name": "ERC6372InconsistentClock",
      "type": "error"
    },
    {
      "inputs": [],
      "name": "EnforcedPause",
      "type": "error"
    },
    {
      "inputs": [],
      "name": "ExpectedPause",
      "type": "error"
    },
    {
      "inputs": [
        {
          "internalType": "address",
          "name": "account",
          "type": "address"
        },
        {
          "internalType": "uint256",
          "name": "currentNonce",
          "type": "uint256"
        }
      ],
      "name": "InvalidAccountNonce",
      "type": "error"
    },
    {
      "inputs": [],
      "name": "InvalidShortString",
      "type": "error"
    },
    {
      "inputs": [
        {
          "internalType": "address",
          "name": "owner",
          "type": "address"
        }
      ],
      "name": "OwnableInvalidOwner",
      "type": "error"
    },
    {
      "inputs": [
        {
          "internalType": "address",
          "name": "account",
          "type": "address"
        }
      ],
      "name": "OwnableUnauthorizedAccount",
      "type": "error"
    },
    {
      "inputs": [
        {
          "internalType": "uint8",
          "name": "bits",
          "type": "uint8"
        },
        {
          "internalType": "uint256",
          "name": "value",
          "type": "uint256"
        }
      ],
      "name": "SafeCastOverflowedUintDowncast",
      "type": "error"
    },
    {
      "inputs": [
        {
          "internalType": "string",
          "name": "str",
          "type": "string"
        }
      ],
      "name": "StringTooLong",
      "type": "error"
    },
    {
      "inputs": [
        {
          "internalType": "uint256",
          "name": "expiry",
          "type": "uint256"
        }
      ],
      "name": "VotesExpiredSignature",
      "type": "error"
    },
    {
      "anonymous": false,
      "inputs": [
        {
          "indexed": true,
          "internalType": "address",
          "name": "owner",
          "type": "address"
        },
        {
          "indexed": true,
          "internalType": "address",
          "name": "spender",
          "type": "address"
        },
        {
          "indexed": false,
          "internalType": "uint256",
          "name": "value",
          "type": "uint256"
        }
      ],
      "name": "Approval",
      "type": "event"
    },
    {
      "anonymous": false,
      "inputs": [
        {
          "indexed": true,
          "internalType": "address",
          "name": "delegator",
          "type": "address"
        },
        {
          "indexed": true,
          "internalType": "address",
          "name": "fromDelegate",
          "type": "address"
        },
        {
          "indexed": true,
          "internalType": "address",
          "name": "toDelegate",
          "type": "address"
        }
      ],
      "name": "DelegateChanged",
      "type": "event"
    },
    {
      "anonymous": false,
      "inputs": [
        {
          "indexed": true,
          "internalType": "address",
          "name": "delegate",
          "type": "address"
        },
        {
          "indexed": false,
          "internalType": "uint256",
          "name": "previousVotes",
          "type": "uint256"
        },
        {
          "indexed": false,
          "internalType": "uint256",
          "name": "newVotes",
          "type": "uint256"
        }
      ],
      "name": "DelegateVotesChanged",
      "type": "event"
    },
    {
      "anonymous": false,
      "inputs": [],
      "name": "EIP712DomainChanged",
      "type": "event"
    },
    {
      "anonymous": false,
      "inputs": [
        {
          "indexed": true,
          "internalType": "address",
          "name": "previousOwner",
          "type": "address"
        },
        {
          "indexed": true,
          "internalType": "address",
          "name": "newOwner",
          "type": "address"
        }
      ],
      "name": "OwnershipTransferred",
      "type": "event"
    },
    {
      "anonymous": false,
      "inputs": [
        {
          "indexed": false,
          "internalType": "address",
          "name": "account",
          "type": "address"
        }
      ],
      "name": "Paused",
      "type": "event"
    },
    {
      "anonymous": false,
      "inputs": [
        {
          "indexed": true,
          "internalType": "address",
          "name": "from",
          "type": "address"
        },
        {
          "indexed": true,
          "internalType": "address",
          "name": "to",
          "type": "address"
        },
        {
          "indexed": false,
          "internalType": "uint256",
          "name": "value",
          "type": "uint256"
        }
      ],
      "name": "Transfer",
      "type": "event"
    },
    {
      "anonymous": false,
      "inputs": [
        {
          "indexed": false,
          "internalType": "address",
          "name": "account",
          "type": "address"
        }
      ],
      "name": "Unpaused",
      "type": "event"
    },
    {
      "inputs": [],
      "name": "CLOCK_MODE",
      "outputs": [
        {
          "internalType": "string",
          "name": "",
          "type": "string"
        }
      ],
      "stateMutability": "view",
      "type": "function"
    },
    {
      "inputs": [],
      "name": "DOMAIN_SEPARATOR",
      "outputs": [
        {
          "internalType": "bytes32",
          "name": "",
          "type": "bytes32"
        }
      ],
      "stateMutability": "view",
      "type": "function"
    },
    {
      "inputs": [
        {
          "internalType": "address",
          "name": "owner",
          "type": "address"
        },
        {
          "internalType": "address",
          "name": "spender",
          "type": "address"
        }
      ],
      "name": "allowance",
      "outputs": [
        {
          "internalType": "uint256",
          "name": "",
          "type": "uint256"
        }
      ],
      "stateMutability": "view",
      "type": "function"
    },
    {
      "inputs": [
        {
          "internalType": "address",
          "name": "spender",
          "type": "address"
        },
        {
          "internalType": "uint256",
          "name": "value",
          "type": "uint256"
        }
      ],
      "name": "approve",
      "outputs": [
        {
          "internalType": "bool",
          "name": "",
          "type": "bool"
        }
      ],
      "stateMutability": "nonpayable",
      "type": "function"
    },
    {
      "inputs": [
        {
          "internalType": "address",
          "name": "account",
          "type": "address"
        }
      ],
      "name": "balanceOf",
      "outputs": [
        {
          "internalType": "uint256",
          "name": "",
          "type": "uint256"
        }
      ],
      "stateMutability": "view",
      "type": "function"
    },
    {
      "inputs": [
        {
          "internalType": "address",
          "name": "account",
          "type": "address"
        },
        {
          "internalType": "uint32",
          "name": "pos",
          "type": "uint32"
        }
      ],
      "name": "checkpoints",
      "outputs": [
        {
          "components": [
            {
              "internalType": "uint48",
              "name": "_key",
              "type": "uint48"
            },
            {
              "internalType": "uint208",
              "name": "_value",
              "type": "uint208"
            }
          ],
          "internalType": "struct Checkpoints.Checkpoint208",
          "name": "",
          "type": "tuple"
        }
      ],
      "stateMutability": "view",
      "type": "function"
    },
    {
      "inputs": [],
      "name": "clock",
      "outputs": [
        {
          "internalType": "uint48",
          "name": "",
          "type": "uint48"
        }
      ],
      "stateMutability": "view",
      "type": "function"
    },
    {
      "inputs": [],
      "name": "decimals",
      "outputs": [
        {
          "internalType": "uint8",
          "name": "",
          "type": "uint8"
        }
      ],
      "stateMutability": "view",
      "type": "function"
    },
    {
      "inputs": [
        {
          "internalType": "address",
          "name": "delegatee",
          "type": "address"
        }
      ],
      "name": "delegate",
      "outputs": [],
      "stateMutability": "nonpayable",
      "type": "function"
    },
    {
      "inputs": [
        {
          "internalType": "address",
          "name": "delegatee",
          "type": "address"
        },
        {
          "internalType": "uint256",
          "name": "nonce",
          "type": "uint256"
        },
        {
          "internalType": "uint256",
          "name": "expiry",
          "type": "uint256"
        },
        {
          "internalType": "uint8",
          "name": "v",
          "type": "uint8"
        },
        {
          "internalType": "bytes32",
          "name": "r",
          "type": "bytes32"
        },
        {
          "internalType": "bytes32",
          "name": "s",
          "type": "bytes32"
        }
      ],
      "name": "delegateBySig",
      "outputs": [],
      "stateMutability": "nonpayable",
      "type": "function"
    },
    {
      "inputs": [
        {
          "internalType": "address",
          "name": "account",
          "type": "address"
        }
      ],
      "name": "delegates",
      "outputs": [
        {
          "internalType": "address",
          "name": "",
          "type": "address"
        }
      ],
      "stateMutability": "view",
      "type": "function"
    },
    {
      "inputs": [],
      "name": "eip712Domain",
      "outputs": [
        {
          "internalType": "bytes1",
          "name": "fields",
          "type": "bytes1"
        },
        {
          "internalType": "string",
          "name": "name",
          "type": "string"
        },
        {
          "internalType": "string",
          "name": "version",
          "type": "string"
        },
        {
          "internalType": "uint256",
          "name": "chainId",
          "type": "uint256"
        },
        {
          "internalType": "address",
          "name": "verifyingContract",
          "type": "address"
        },
        {
          "internalType": "bytes32",
          "name": "salt",
          "type": "bytes32"
        },
        {
          "internalType": "uint256[]",
          "name": "extensions",
          "type": "uint256[]"
        }
      ],
      "stateMutability": "view",
      "type": "function"
    },
    {
      "inputs": [
        {
          "internalType": "uint256",
          "name": "timepoint",
          "type": "uint256"
        }
      ],
      "name": "getPastTotalSupply",
      "outputs": [
        {
          "internalType": "uint256",
          "name": "",
          "type": "uint256"
        }
      ],
      "stateMutability": "view",
      "type": "function"
    },
    {
      "inputs": [
        {
          "internalType": "address",
          "name": "account",
          "type": "address"
        },
        {
          "internalType": "uint256",
          "name": "timepoint",
          "type": "uint256"
        }
      ],
      "name": "getPastVotes",
      "outputs": [
        {
          "internalType": "uint256",
          "name": "",
          "type": "uint256"
        }
      ],
      "stateMutability": "view",
      "type": "function"
    },
    {
      "inputs": [
        {
          "internalType": "address",
          "name": "account",
          "type": "address"
        }
      ],
      "name": "getVotes",
      "outputs": [
        {
          "internalType": "uint256",
          "name": "",
          "type": "uint256"
        }
      ],
      "stateMutability": "view",
      "type": "function"
    },
    {
      "inputs": [],
      "name": "name",
      "outputs": [
        {
          "internalType": "string",
          "name": "",
          "type": "string"
        }
      ],
      "stateMutability": "view",
      "type": "function"
    },
    {
      "inputs": [
        {
          "internalType": "address",
          "name": "owner",
          "type": "address"
        }
      ],
      "name": "nonces",
      "outputs": [
        {
          "internalType": "uint256",
          "name": "",
          "type": "uint256"
        }
      ],
      "stateMutability": "view",
      "type": "function"
    },
    {
      "inputs": [
        {
          "internalType": "address",
          "name": "account",
          "type": "address"
        }
      ],
      "name": "numCheckpoints",
      "outputs": [
        {
          "internalType": "uint32",
          "name": "",
          "type": "uint32"
        }
      ],
      "stateMutability": "view",
      "type": "function"
    },
    {
      "inputs": [],
      "name": "owner",
      "outputs": [
        {
          "internalType": "address",
          "name": "",
          "type": "address"
        }
      ],
      "stateMutability": "view",
      "type": "function"
    },
    {
      "inputs": [],
      "name": "pause",
      "outputs": [],
      "stateMutability": "nonpayable",
      "type": "function"
    },
    {
      "inputs": [],
      "name": "paused",
      "outputs": [
        {
          "internalType": "bool",
          "name": "",
          "type": "bool"
        }
      ],
      "stateMutability": "view",
      "type": "function"
    },
    {
      "inputs": [
        {
          "internalType": "address",
          "name": "owner",
          "type": "address"
        },
        {
          "internalType": "address",
          "name": "spender",
          "type": "address"
        },
        {
          "internalType": "uint256",
          "name": "value",
          "type": "uint256"
        },
        {
          "internalType": "uint256",
          "name": "deadline",
          "type": "uint256"
        },
        {
          "internalType": "uint8",
          "name": "v",
          "type": "uint8"
        },
        {
          "internalType": "bytes32",
          "name": "r",
          "type": "bytes32"
        },
        {
          "internalType": "bytes32",
          "name": "s",
          "type": "bytes32"
        }
      ],
      "name": "permit",
      "outputs": [],
      "stateMutability": "nonpayable",
      "type": "function"
    },
    {
      "inputs": [],
      "name": "renounceOwnership",
      "outputs": [],
      "stateMutability": "nonpayable",
      "type": "function"
    },
    {
      "inputs": [],
      "name": "symbol",
      "outputs": [
        {
          "internalType": "string",
          "name": "",
          "type": "string"
        }
      ],
      "stateMutability": "view",
      "type": "function"
    },
    {
      "inputs": [],
      "name": "totalSupply",
      "outputs": [
        {
          "internalType": "uint256",
          "name": "",
          "type": "uint256"
        }
      ],
      "stateMutability": "view",
      "type": "function"
    },
    {
      "inputs": [
        {
          "internalType": "address",
          "name": "to",
          "type": "address"
        },
        {
          "internalType": "uint256",
          "name": "value",
          "type": "uint256"
        }
      ],
      "name": "transfer",
      "outputs": [
        {
          "internalType": "bool",
          "name": "",
          "type": "bool"
        }
      ],
      "stateMutability": "nonpayable",
      "type": "function"
    },
    {
      "inputs": [
        {
          "internalType": "address",
          "name": "from",
          "type": "address"
        },
        {
          "internalType": "address",
          "name": "to",
          "type": "address"
        },
        {
          "internalType": "uint256",
          "name": "value",
          "type": "uint256"
        }
      ],
      "name": "transferFrom",
      "outputs": [
        {
          "internalType": "bool",
          "name": "",
          "type": "bool"
        }
      ],
      "stateMutability": "nonpayable",
      "type": "function"
    },
    {
      "inputs": [
        {
          "internalType": "address",
          "name": "newOwner",
          "type": "address"
        }
      ],
      "name": "transferOwnership",
      "outputs": [],
      "stateMutability": "nonpayable",
      "type": "function"
    },
    {
      "inputs": [],
      "name": "unpause",
      "outputs": [],
      "stateMutability": "nonpayable",
      "type": "function"
    }
  ],
  "bytecode": "0x6101606040523480156200001257600080fd5b5060405162002edf38038062002edf833981016040819052620000359162000a05565b806040518060400160405280601681526020017f416c69676e656420426561636f6e20436f6d6d6f6e730000000000000000000081525080604051806040016040528060018152602001603160f81b8152506040518060400160405280601681526020017f416c69676e656420426561636f6e20436f6d6d6f6e73000000000000000000008152506040518060400160405280600381526020016241424360e81b8152508160039081620000ea919062000ad4565b506004620000f9828262000ad4565b506200010b9150839050600562000220565b610120526200011c81600662000220565b61014052815160208084019190912060e052815190820120610100524660a052620001aa60e05161010051604080517f8b73c3c69bb8fe3d512ecc4cf759cc79239f7b179b0ffacaa9a75d522b39400f60208201529081019290925260608201524660808201523060a082015260009060c00160405160208183030381529060405280519060200120905090565b60805250503060c052506001600160a01b038116620001e457604051631e4fbdf760e01b8152600060048201526024015b60405180910390fd5b620001ef8162000259565b506200021933620002036012600a62000cb3565b62000213906305f5e10062000cc4565b620002ab565b5062000dcc565b600060208351101562000240576200023883620002e9565b905062000253565b816200024d848262000ad4565b5060ff90505b92915050565b600b80546001600160a01b038381166001600160a01b0319831681179093556040519116919082907f8be0079c531659141344cd1fd0a4f28419497f9722a3daafe3b4186f6b6457e090600090a35050565b6001600160a01b038216620002d75760405163ec442f0560e01b815260006004820152602401620001db565b620002e5600083836200032c565b5050565b600080829050601f8151111562000317578260405163305a27a960e01b8152600401620001db919062000cde565b8051620003248262000d2e565b179392505050565b62000340600b54600160a01b900460ff1690565b156200039d5760405162461bcd60e51b815260206004820152602560248201527f414243546f6b656e3a20746f6b656e207472616e73666572207768696c652070604482015264185d5cd95960da1b6064820152608401620001db565b620003aa838383620003af565b505050565b620003bc8383836200041e565b6001600160a01b03831662000411576000620003d760025490565b90506001600160d01b03808211156200040e57604051630e58ae9360e11b81526004810183905260248101829052604401620001db565b50505b620003aa83838362000551565b6001600160a01b0383166200044d57806002600082825462000441919062000d53565b90915550620004c19050565b6001600160a01b03831660009081526020819052604090205481811015620004a25760405163391434e360e21b81526001600160a01b03851660048201526024810182905260448101839052606401620001db565b6001600160a01b03841660009081526020819052604090209082900390555b6001600160a01b038216620004df57600280548290039055620004fe565b6001600160a01b03821660009081526020819052604090208054820190555b816001600160a01b0316836001600160a01b03167fddf252ad1be2c89b69c2b068fc378daa952ba7f163c4a11628f55a4df523b3ef836040516200054491815260200190565b60405180910390a3505050565b6001600160a01b038316620005865762000583600a6200098e620005e960201b176200057d84620005fe565b62000638565b50505b6001600160a01b038216620005b557620005b2600a6200099a6200067560201b176200057d84620005fe565b50505b6001600160a01b03838116600090815260086020526040808220548584168352912054620003aa9291821691168362000683565b6000620005f7828462000d69565b9392505050565b60006001600160d01b0382111562000634576040516306dfcc6560e41b815260d0600482015260248101839052604401620001db565b5090565b6000806200066862000649620007ea565b6200065f6200065888620007fb565b868860201c565b8791906200084a565b915091505b935093915050565b6000620005f7828462000d93565b816001600160a01b0316836001600160a01b031614158015620006a65750600081115b15620003aa576001600160a01b0383161562000749576001600160a01b038316600090815260096020908152604082208291620006f4919062000675901b6200099a176200057d86620005fe565b6001600160d01b031691506001600160d01b03169150846001600160a01b031660008051602062002ebf83398151915283836040516200073e929190918252602082015260400190565b60405180910390a250505b6001600160a01b03821615620003aa576001600160a01b038216600090815260096020908152604082208291620007919190620005e9901b6200098e176200057d86620005fe565b6001600160d01b031691506001600160d01b03169150836001600160a01b031660008051602062002ebf8339815191528383604051620007db929190918252602082015260400190565b60405180910390a25050505050565b6000620007f66200085a565b905090565b80546000908015620008415762000827836200081960018462000db6565b600091825260209091200190565b54660100000000000090046001600160d01b0316620005f7565b60009392505050565b6000806200066885858562000867565b6000620007f643620009d0565b8254600090819080156200097157600062000889876200081960018562000db6565b805490915065ffffffffffff80821691660100000000000090046001600160d01b0316908816821115620008d057604051632520601d60e01b815260040160405180910390fd5b8765ffffffffffff168265ffffffffffff16036200090e57825465ffffffffffff1666010000000000006001600160d01b0389160217835562000962565b6040805180820190915265ffffffffffff808a1682526001600160d01b03808a1660208085019182528d54600181018f5560008f815291909120945191519092166601000000000000029216919091179101555b94508593506200066d92505050565b50506040805180820190915265ffffffffffff80851682526001600160d01b0380851660208085019182528854600181018a5560008a81529182209551925190931666010000000000000291909316179201919091559050816200066d565b600065ffffffffffff82111562000634576040516306dfcc6560e41b81526030600482015260248101839052604401620001db565b60006020828403121562000a1857600080fd5b81516001600160a01b0381168114620005f757600080fd5b634e487b7160e01b600052604160045260246000fd5b600181811c9082168062000a5b57607f821691505b60208210810362000a7c57634e487b7160e01b600052602260045260246000fd5b50919050565b601f821115620003aa57600081815260208120601f850160051c8101602086101562000aab5750805b601f850160051c820191505b8181101562000acc5782815560010162000ab7565b505050505050565b81516001600160401b0381111562000af05762000af062000a30565b62000b088162000b01845462000a46565b8462000a82565b602080601f83116001811462000b40576000841562000b275750858301515b600019600386901b1c1916600185901b17855562000acc565b600085815260208120601f198616915b8281101562000b715788860151825594840194600190910190840162000b50565b508582101562000b905787850151600019600388901b60f8161c191681555b5050505050600190811b01905550565b634e487b7160e01b600052601160045260246000fd5b600181815b8085111562000bf757816000190482111562000bdb5762000bdb62000ba0565b8085161562000be957918102915b93841c939080029062000bbb565b509250929050565b60008262000c105750600162000253565b8162000c1f5750600062000253565b816001811462000c38576002811462000c435762000c63565b600191505062000253565b60ff84111562000c575762000c5762000ba0565b50506001821b62000253565b5060208310610133831016604e8410600b841016171562000c88575081810a62000253565b62000c94838362000bb6565b806000190482111562000cab5762000cab62000ba0565b029392505050565b6000620005f760ff84168362000bff565b808202811582820484141762000253576200025362000ba0565b600060208083528351808285015260005b8181101562000d0d5785810183015185820160400152820162000cef565b506000604082860101526040601f19601f8301168501019250505092915050565b8051602080830151919081101562000a7c5760001960209190910360031b1b16919050565b8082018082111562000253576200025362000ba0565b6001600160d01b0381811683821601908082111562000d8c5762000d8c62000ba0565b5092915050565b6001600160d01b0382811682821603908082111562000d8c5762000d8c62000ba0565b8181038181111562000253576200025362000ba0565b60805160a05160c05160e05161010051610120516101405161209862000e276000396000610ece01526000610ea101526000610b7001526000610b4801526000610aa301526000610acd01526000610af701526120986000f3fe608060405234801561001057600080fd5b50600436106101cf5760003560e01c8063715018a61161010457806395d89b41116100a2578063d505accf11610071578063d505accf146103f2578063dd62ed3e14610405578063f1127ed81461043e578063f2fde38b1461047d57600080fd5b806395d89b41146103b15780639ab24eb0146103b9578063a9059cbb146103cc578063c3cda520146103df57600080fd5b806384b0196e116100de57806384b0196e146103535780638da5cb5b1461036e5780638e539e8c1461037f57806391ddadf41461039257600080fd5b8063715018a6146103305780637ecebe00146103385780638456cb591461034b57600080fd5b80633f4ba83a116101715780635c19a95c1161014b5780635c19a95c146102ba5780635c975abb146102cd5780636fcfff45146102df57806370a082311461030757600080fd5b80633f4ba83a146102645780634bf5d7e91461026e578063587cde1e1461027657600080fd5b806323b872dd116101ad57806323b872dd14610227578063313ce5671461023a5780633644e515146102495780633a46b1a81461025157600080fd5b806306fdde03146101d4578063095ea7b3146101f257806318160ddd14610215575b600080fd5b6101dc610490565b6040516101e99190611c9c565b60405180910390f35b610205610200366004611ccb565b610522565b60405190151581526020016101e9565b6002545b6040519081526020016101e9565b610205610235366004611cf5565b61053c565b604051601281526020016101e9565b610219610560565b61021961025f366004611ccb565b61056f565b61026c6105ab565b005b6101dc6105bd565b6102a2610284366004611d31565b6001600160a01b039081166000908152600860205260409020541690565b6040516001600160a01b0390911681526020016101e9565b61026c6102c8366004611d31565b610635565b600b54600160a01b900460ff16610205565b6102f26102ed366004611d31565b610644565b60405163ffffffff90911681526020016101e9565b610219610315366004611d31565b6001600160a01b031660009081526020819052604090205490565b61026c61064f565b610219610346366004611d31565b610661565b61026c61066c565b61035b61067c565b6040516101e99796959493929190611d4c565b600b546001600160a01b03166102a2565b61021961038d366004611de2565b6106c2565b61039a6106e7565b60405165ffffffffffff90911681526020016101e9565b6101dc6106f1565b6102196103c7366004611d31565b610700565b6102056103da366004611ccb565b610721565b61026c6103ed366004611e0c565b61072f565b61026c610400366004611e64565b6107f1565b610219610413366004611ece565b6001600160a01b03918216600090815260016020908152604080832093909416825291909152205490565b61045161044c366004611f01565b61092b565b60408051825165ffffffffffff1681526020928301516001600160d01b031692810192909252016101e9565b61026c61048b366004611d31565b610950565b60606003805461049f90611f41565b80601f01602080910402602001604051908101604052809291908181526020018280546104cb90611f41565b80156105185780601f106104ed57610100808354040283529160200191610518565b820191906000526020600020905b8154815290600101906020018083116104fb57829003601f168201915b5050505050905090565b6000336105308185856109a6565b60019150505b92915050565b60003361054a8582856109b8565b610555858585610a37565b506001949350505050565b600061056a610a96565b905090565b600061059b61057d83610bc1565b6001600160a01b038516600090815260096020526040902090610c10565b6001600160d01b03169392505050565b6105b3610cc6565b6105bb610cf3565b565b60606105c7610d48565b65ffffffffffff166105d76106e7565b65ffffffffffff16146105fd576040516301bfc1c560e61b815260040160405180910390fd5b5060408051808201909152601d81527f6d6f64653d626c6f636b6e756d6265722666726f6d3d64656661756c74000000602082015290565b336106408183610d53565b5050565b600061053682610dc5565b610657610cc6565b6105bb6000610de7565b600061053682610e39565b610674610cc6565b6105bb610e57565b600060608060008060006060610690610e9a565b610698610ec7565b60408051600080825260208201909252600f60f81b9b939a50919850469750309650945092509050565b60006106d86106d083610bc1565b600a90610c10565b6001600160d01b031692915050565b600061056a610d48565b60606004805461049f90611f41565b6001600160a01b03811660009081526009602052604081206106d890610ef4565b600033610530818585610a37565b8342111561075857604051632341d78760e11b8152600481018590526024015b60405180910390fd5b604080517fe48329057bfd03d55e49b547132e39cffd9c1820ad7b9d4c5307691425d15adf60208201526001600160a01b0388169181019190915260608101869052608081018590526000906107d2906107ca9060a00160405160208183030381529060405280519060200120610f2d565b858585610f5a565b90506107de8187610f88565b6107e88188610d53565b50505050505050565b834211156108155760405163313c898160e11b81526004810185905260240161074f565b60007f6e71edae12b1b97f4d1f60370fef10105fa2faae0126114a169c64845d6126c98888886108628c6001600160a01b0316600090815260076020526040902080546001810190915590565b6040805160208101969096526001600160a01b0394851690860152929091166060840152608083015260a082015260c0810186905260e00160405160208183030381529060405280519060200120905060006108bd82610f2d565b905060006108cd82878787610f5a565b9050896001600160a01b0316816001600160a01b031614610914576040516325c0072360e11b81526001600160a01b0380831660048301528b16602482015260440161074f565b61091f8a8a8a6109a6565b50505050505050505050565b60408051808201909152600080825260208201526109498383610fdb565b9392505050565b610958610cc6565b6001600160a01b03811661098257604051631e4fbdf760e01b81526000600482015260240161074f565b61098b81610de7565b50565b60006109498284611f91565b60006109498284611fb8565b6109b38383836001611011565b505050565b6001600160a01b03838116600090815260016020908152604080832093861683529290522054600019811015610a315781811015610a2257604051637dc7a0d960e11b81526001600160a01b0384166004820152602481018290526044810183905260640161074f565b610a3184848484036000611011565b50505050565b6001600160a01b038316610a6157604051634b637e8f60e11b81526000600482015260240161074f565b6001600160a01b038216610a8b5760405163ec442f0560e01b81526000600482015260240161074f565b6109b38383836110e6565b6000306001600160a01b037f000000000000000000000000000000000000000000000000000000000000000016148015610aef57507f000000000000000000000000000000000000000000000000000000000000000046145b15610b1957507f000000000000000000000000000000000000000000000000000000000000000090565b61056a604080517f8b73c3c69bb8fe3d512ecc4cf759cc79239f7b179b0ffacaa9a75d522b39400f60208201527f0000000000000000000000000000000000000000000000000000000000000000918101919091527f000000000000000000000000000000000000000000000000000000000000000060608201524660808201523060a082015260009060c00160405160208183030381529060405280519060200120905090565b600080610bcc6106e7565b90508065ffffffffffff168310610c0757604051637669fc0f60e11b81526004810184905265ffffffffffff8216602482015260440161074f565b61094983611159565b815460009081816005811115610c6f576000610c2b84611190565b610c359085611fd8565b60008881526020902090915081015465ffffffffffff9081169087161015610c5f57809150610c6d565b610c6a816001611feb565b92505b505b6000610c7d878785856112e9565b90508015610cb857610ca287610c94600184611fd8565b600091825260209091200190565b54600160301b90046001600160d01b0316610cbb565b60005b979650505050505050565b600b546001600160a01b031633146105bb5760405163118cdaa760e01b815233600482015260240161074f565b610cfb61134b565b600b805460ff60a01b191690557f5db9ee0a495bf2e6ff9c91a7834c1ba4fdd244a5e8aa4e537bd38aeae4b073aa335b6040516001600160a01b03909116815260200160405180910390a1565b600061056a43611159565b6001600160a01b0382811660008181526008602052604080822080548686166001600160a01b0319821681179092559151919094169392849290917f3134e8a2e6d97e929a7e54011ea5485d7d196dd5f0ba4d4ef95803e8e3fc257f9190a46109b38183610dc086611375565b611393565b6001600160a01b038116600090815260096020526040812054610536906114ff565b600b80546001600160a01b038381166001600160a01b0319831681179093556040519116919082907f8be0079c531659141344cd1fd0a4f28419497f9722a3daafe3b4186f6b6457e090600090a35050565b6001600160a01b038116600090815260076020526040812054610536565b610e5f611530565b600b805460ff60a01b1916600160a01b1790557f62e78cea01bee320cd4e420270b5ea74000d11b0c9f74754ebdbfc544b05a258610d2b3390565b606061056a7f0000000000000000000000000000000000000000000000000000000000000000600561155b565b606061056a7f0000000000000000000000000000000000000000000000000000000000000000600661155b565b80546000908015610f2457610f0e83610c94600184611fd8565b54600160301b90046001600160d01b0316610949565b60009392505050565b6000610536610f3a610a96565b8360405161190160f01b8152600281019290925260228201526042902090565b600080600080610f6c88888888611606565b925092509250610f7c82826116d5565b50909695505050505050565b6001600160a01b03821660009081526007602052604090208054600181019091558181146109b3576040516301d4b62360e61b81526001600160a01b03841660048201526024810182905260440161074f565b60408051808201909152600080825260208201526001600160a01b0383166000908152600960205260409020610949908361178e565b6001600160a01b03841661103b5760405163e602df0560e01b81526000600482015260240161074f565b6001600160a01b03831661106557604051634a1406b160e11b81526000600482015260240161074f565b6001600160a01b0380851660009081526001602090815260408083209387168352929052208290558015610a3157826001600160a01b0316846001600160a01b03167f8c5be1e5ebec7d5bd14f71427d1e84f3dd0314c0f7b2291e5b200ac8c7c3b925846040516110d891815260200190565b60405180910390a350505050565b600b54600160a01b900460ff161561114e5760405162461bcd60e51b815260206004820152602560248201527f414243546f6b656e3a20746f6b656e207472616e73666572207768696c652070604482015264185d5cd95960da1b606482015260840161074f565b6109b38383836117fe565b600065ffffffffffff82111561118c576040516306dfcc6560e41b8152603060048201526024810183905260440161074f565b5090565b60006001821161119e575090565b816001600160801b82106111b75760809190911c9060401b5b6801000000000000000082106111d25760409190911c9060201b5b64010000000082106111e95760209190911c9060101b5b6201000082106111fe5760109190911c9060081b5b61010082106112125760089190911c9060041b5b601082106112255760049190911c9060021b5b600482106112315760011b5b600302600190811c9081858161124957611249611ffe565b048201901c9050600181858161126157611261611ffe565b048201901c9050600181858161127957611279611ffe565b048201901c9050600181858161129157611291611ffe565b048201901c905060018185816112a9576112a9611ffe565b048201901c905060018185816112c1576112c1611ffe565b048201901c90506112e08185816112da576112da611ffe565b04821190565b90039392505050565b60005b818310156113435760006113008484611865565b60008781526020902090915065ffffffffffff86169082015465ffffffffffff16111561132f5780925061133d565b61133a816001611feb565b93505b506112ec565b509392505050565b600b54600160a01b900460ff166105bb57604051638dfc202b60e01b815260040160405180910390fd5b6001600160a01b038116600090815260208190526040812054610536565b816001600160a01b0316836001600160a01b0316141580156113b55750600081115b156109b3576001600160a01b0383161561145d576001600160a01b038316600090815260096020526040812081906113f89061099a6113f386611880565b6118b4565b6001600160d01b031691506001600160d01b03169150846001600160a01b03167fdec2bacdd2f05b59de34da9b523dff8be42e5e38e818c82fdb0bae774387a7248383604051611452929190918252602082015260400190565b60405180910390a250505b6001600160a01b038216156109b3576001600160a01b038216600090815260096020526040812081906114969061098e6113f386611880565b6001600160d01b031691506001600160d01b03169150836001600160a01b03167fdec2bacdd2f05b59de34da9b523dff8be42e5e38e818c82fdb0bae774387a72483836040516114f0929190918252602082015260400190565b60405180910390a25050505050565b600063ffffffff82111561118c576040516306dfcc6560e41b8152602060048201526024810183905260440161074f565b600b54600160a01b900460ff16156105bb5760405163d93c066560e01b815260040160405180910390fd5b606060ff83146115755761156e836118ed565b9050610536565b81805461158190611f41565b80601f01602080910402602001604051908101604052809291908181526020018280546115ad90611f41565b80156115fa5780601f106115cf576101008083540402835291602001916115fa565b820191906000526020600020905b8154815290600101906020018083116115dd57829003601f168201915b50505050509050610536565b600080807f7fffffffffffffffffffffffffffffff5d576e7357a4501ddfe92f46681b20a084111561164157506000915060039050826116cb565b604080516000808252602082018084528a905260ff891692820192909252606081018790526080810186905260019060a0016020604051602081039080840390855afa158015611695573d6000803e3d6000fd5b5050604051601f1901519150506001600160a01b0381166116c1575060009250600191508290506116cb565b9250600091508190505b9450945094915050565b60008260038111156116e9576116e9612014565b036116f2575050565b600182600381111561170657611706612014565b036117245760405163f645eedf60e01b815260040160405180910390fd5b600282600381111561173857611738612014565b036117595760405163fce698f760e01b81526004810182905260240161074f565b600382600381111561176d5761176d612014565b03610640576040516335e2f38360e21b81526004810182905260240161074f565b6040805180820190915260008082526020820152826000018263ffffffff16815481106117bd576117bd61202a565b60009182526020918290206040805180820190915291015465ffffffffffff81168252600160301b90046001600160d01b0316918101919091529392505050565b61180983838361192c565b6001600160a01b03831661185a57600061182260025490565b90506001600160d01b038082111561185757604051630e58ae9360e11b8152600481018390526024810182905260440161074f565b50505b6109b3838383611a56565b60006118746002848418612040565b61094990848416611feb565b60006001600160d01b0382111561118c576040516306dfcc6560e41b815260d060048201526024810183905260440161074f565b6000806118e06118c26106e7565b6118d86118ce88610ef4565b868863ffffffff16565b879190611acc565b915091505b935093915050565b606060006118fa83611ada565b604080516020808252818301909252919250600091906020820181803683375050509182525060208101929092525090565b6001600160a01b03831661195757806002600082825461194c9190611feb565b909155506119c99050565b6001600160a01b038316600090815260208190526040902054818110156119aa5760405163391434e360e21b81526001600160a01b0385166004820152602481018290526044810183905260640161074f565b6001600160a01b03841660009081526020819052604090209082900390555b6001600160a01b0382166119e557600280548290039055611a04565b6001600160a01b03821660009081526020819052604090208054820190555b816001600160a01b0316836001600160a01b03167fddf252ad1be2c89b69c2b068fc378daa952ba7f163c4a11628f55a4df523b3ef83604051611a4991815260200190565b60405180910390a3505050565b6001600160a01b038316611a7857611a75600a61098e6113f384611880565b50505b6001600160a01b038216611a9a57611a97600a61099a6113f384611880565b50505b6001600160a01b038381166000908152600860205260408082205485841683529120546109b392918216911683611393565b6000806118e0858585611b02565b600060ff8216601f81111561053657604051632cd44ac360e21b815260040160405180910390fd5b825460009081908015611bfb576000611b2087610c94600185611fd8565b805490915065ffffffffffff80821691600160301b90046001600160d01b0316908816821115611b6357604051632520601d60e01b815260040160405180910390fd5b8765ffffffffffff168265ffffffffffff1603611b9c57825465ffffffffffff16600160301b6001600160d01b03891602178355611bed565b6040805180820190915265ffffffffffff808a1682526001600160d01b03808a1660208085019182528d54600181018f5560008f81529190912094519151909216600160301b029216919091179101555b94508593506118e592505050565b50506040805180820190915265ffffffffffff80851682526001600160d01b0380851660208085019182528854600181018a5560008a815291822095519251909316600160301b0291909316179201919091559050816118e5565b6000815180845260005b81811015611c7c57602081850181015186830182015201611c60565b506000602082860101526020601f19601f83011685010191505092915050565b6020815260006109496020830184611c56565b80356001600160a01b0381168114611cc657600080fd5b919050565b60008060408385031215611cde57600080fd5b611ce783611caf565b946020939093013593505050565b600080600060608486031215611d0a57600080fd5b611d1384611caf565b9250611d2160208501611caf565b9150604084013590509250925092565b600060208284031215611d4357600080fd5b61094982611caf565b60ff60f81b881681526000602060e081840152611d6c60e084018a611c56565b8381036040850152611d7e818a611c56565b606085018990526001600160a01b038816608086015260a0850187905284810360c0860152855180825283870192509083019060005b81811015611dd057835183529284019291840191600101611db4565b50909c9b505050505050505050505050565b600060208284031215611df457600080fd5b5035919050565b803560ff81168114611cc657600080fd5b60008060008060008060c08789031215611e2557600080fd5b611e2e87611caf565b95506020870135945060408701359350611e4a60608801611dfb565b92506080870135915060a087013590509295509295509295565b600080600080600080600060e0888a031215611e7f57600080fd5b611e8888611caf565b9650611e9660208901611caf565b95506040880135945060608801359350611eb260808901611dfb565b925060a0880135915060c0880135905092959891949750929550565b60008060408385031215611ee157600080fd5b611eea83611caf565b9150611ef860208401611caf565b90509250929050565b60008060408385031215611f1457600080fd5b611f1d83611caf565b9150602083013563ffffffff81168114611f3657600080fd5b809150509250929050565b600181811c90821680611f5557607f821691505b602082108103611f7557634e487b7160e01b600052602260045260246000fd5b50919050565b634e487b7160e01b600052601160045260246000fd5b6001600160d01b03818116838216019080821115611fb157611fb1611f7b565b5092915050565b6001600160d01b03828116828216039080821115611fb157611fb1611f7b565b8181038181111561053657610536611f7b565b8082018082111561053657610536611f7b565b634e487b7160e01b600052601260045260246000fd5b634e487b7160e01b600052602160045260246000fd5b634e487b7160e01b600052603260045260246000fd5b60008261205d57634e487b7160e01b600052601260045260246000fd5b50049056fea2646970667358221220e59e9e37404c7e48645b483ecac8bcbfe33618434a0707acff4776a2fdf37a6d64736f6c63430008140033dec2bacdd2f05b59de34da9b523dff8be42e5e38e818c82fdb0bae774387a724",
  "linkReferences": {},
  "deployedLinkReferences": {}
}